:020000040800F2
:10000000D08B002071020008A71A000815190008FB
:10001000A51A0008A10300086D1E000800000000DA
:10002000000000000000000000000000B101000816
:1000300051040008000000000D020008CD1A00085D
:100040008B0200088B0200088B0200088B0200085C
:100050008B0200088B0200088B0200088B0200084C
:100060008B0200088B0200088B0200088B0200083C
:100070008B0200088B0200088B0200088B0200082C
:100080008B0200088B0200088B02000800000000B1
:100090000000000000000000000000008B020008CB
:1000A0008B020008891B00088B0200088B020008E5
:1000B0008B0200088B0200088B0200088B020008EC
:1000C0008B0200088B0200088B020008A91A0008A6
:1000D0008B020008611E00088B020008000000006F
:1000E0008B0200088B0200088B0200080000000051
:1000F0000000000000000000000000008B0200086B
:10010000000000008B0200088B0200088B02000830
:1001100000000000000000000000000000000000DF
:10012000A50300088B020008B1030008BD03000806
:100130008B0200080000000000000000000000002A
:100140000000000000000000000000008B0200081A
:100150008B0200088B020008C90300088B0200080C
:100160008B0200088B020008000000000000000065
:10017000000000000000000000000000000000007F
:10018000000000008B0200080000000000000000DA
:100190008B0200088B020008DFF810D000F0EEF8A8
:1001A00000480047AD1E0008AFF30080D08B002050
:1001B0002C4B19680868B0E8F04F80F30988BFF34A
:1001C0006F8F4FF0000080F311887047000000002F
:1001D00008480068006880F308884FF0000080F34A
:1001E000148862B661B6BFF34F8FBFF36F8F00DF25
:1001F00000BF00BF08ED00E0DFF80C00016841F42B
:1002000070010160704700BF88ED00E0EFF30980E6
:10021000BFF36F8F134B1A681EF0100F08BF20ED4D
:10022000108A20E9F04F106009B44FF0500080F3BD
:100230001188BFF34F8FBFF36F8F02F009FD4FF0AE
:10024000000080F3118809BC19680868B0E8F04F15
:100250001EF0100F08BFB0EC108A80F30988BFF3BE
:100260006F8F704714000020EFF305807047000087
:100270000648804706480047FEE7FEE7FEE7FEE740
:10028000FEE7FEE7FEE7FEE7FEE7FEE7791B000874
:10029000990100082DE9F05F0546002092469B4633
:1002A00088460646814640241BE02846414647468C
:1002B000224600F053F853465A46C01A914110D3D3
:1002C00011461846224600F03AF82D1A67EB01084D
:1002D0004F4622460120002100F031F817EB0009BB
:1002E0004E41201EA4F10104DFDC484631462A4677
:1002F0004346BDE8F09F40EA01039B0703D009E0B5
:1003000008C9121F08C0042AFAD203E011F8013B01
:1003100000F8013B521EF9D27047D2B201E000F85A
:10032000012B491EFBD270470022F6E710B5134699
:100330000A4604461946FFF7F0FF204610BD202A62
:1003400004DB203A00FA02F1002070479140C2F12C
:10035000200320FA03F3194390407047202A04DB5E
:10036000203A21FA02F00021704721FA02F3D0402E
:10037000C2F120029140084319467047064C074DD0
:1003800006E0E06840F0010394E807009847103465
:10039000AC42F6D3FFF704FF2437000844370008C7
:1003A000FEE70000014800F0B1B80000EC000020BA
:1003B000014800F0ABB80000F4010020014800F053
:1003C000A5B800004C010020014800F09FB80000D3
:1003D0005402002001681823CAB2103AB2FBF3F2AB
:1003E000054B6FF30901032A9B5CC36500D9091D06
:1003F0008165084670470000F836000810B50146D0
:1004000000208B698A6A4FF0C07453B1B3F5005F66
:1004100015D072B1012A0CD0022A0AD0032A09D1C0
:1004200004E01AB1012A06D0022A03D1C96AC9011F
:1004300000D5012010BDC96AA142FAD010BD002A22
:10044000F7D0012AF2D0022AF3D0032AF3D010BD4C
:10045000704772B6FEE72DE9F0410446876D00F063
:1004600085FA064694F835000025022806D080203B
:10047000606584F834500120BDE8F081206801688F
:1004800021F0160101602068416921F0800141617D
:10049000206C08B9A06C20B12068016821F0080127
:1004A00001602068016821F0010101600CE000F0AA
:1004B0005DFA801B052807D920206065032084F899
:1004C000350084F83450D7E720680068C007EED1C3
:1004D00094F85C103F208840B860012084F8350013
:1004E00084F834500020C7E790F83510022903D073
:1004F0008021416501207047052180F83510006892
:10050000016821F001010160002070472DE9F843E6
:1005100004464FF00009CDF8009063484FF416519F
:10052000A56D0068B0FBF1F72E6894F85C10082008
:1005300000FA01F131420FD021680A6852070BD549
:100540000A6822F004020A6094F85C108840A860EF
:10055000606D40F00100606594F85C104FF0010898
:1005600008FA01F0304208D021684969090604D52B
:10057000A860606D40F00200606594F85C10042093
:100580008840304208D021680968890704D5A860EE
:10059000606D40F00400606594F85C1010208840A5
:1005A000304218D021680968090714D5A86020686E
:1005B0000168490304D50068000308D5A16C07E071
:1005C0000168C90503D4016821F008010160216CAC
:1005D00009B12046884794F85C10202088403042BA
:1005E00031D021680968C9062DD5A86094F8350076
:1005F00005282068016806D0490347D50068000334
:100600001DD4616C1CE021F0160101602068416975
:1006100021F080014161206C08B9A06C20B12068F4
:10062000016821F00801016094F85C103F208840C7
:10063000A86084F8358084F83490216D1FE0E16B68
:1006400009B120468847606D00282BD0606DC00737
:1006500014D0052084F835002068016821F00101DC
:1006600001600098401C0090B84203D820680068E0
:10067000C007F6D184F8358084F83490E16C002905
:1006800010D001B02046BDE8F04308470168C90515
:10069000D5D4016821F01001016084F8358084F818
:1006A0003490CCE7BDE8F883100000202DE9F0413C
:1006B000044600F05BF906465CB1022084F8350080
:1006C000002584F834502068016821F001010160A0
:1006D0000DE00120BDE8F08100F048F9801B0528FD
:1006E00005D920206065032084F83500F2E72068F2
:1006F0000068C007F0D12268116820480140D4E9A1
:1007000001031843D4E9033633431843636918439C
:10071000A3691843E3691843236A18430843616ACD
:10072000042903D1D4E90B1319430843106020684E
:100730004069666A20F0070130460E43012704280D
:100740000CD1A06A0643E06A40B12046FFF756FE8E
:1007500020B14020606584F83570BAE720684661B2
:100760002046FFF737FE94F85C203F2191408160DE
:10077000656584F835700020ACE700003F8010F01C
:100780002DE9F84FDFF8B8A10022012403254FF02E
:100790000F090AF1040BAAF1040E00BF0B6804FA5A
:1007A00002F63340B34273D10F7907F00307012FEC
:1007B00001D0022F16D187684FEA420805FA08FCDB
:1007C00027EA0C07D1F80CC00CFA08FC4CEA070C1D
:1007D000C0F808C04768B7430E79C6F300169640C4
:1007E0003E4346600E79F643B6070DD0C768560003
:1007F00005FA06FC27EA0C07D1F808C00CFA06FC3B
:100800004CEA070CC0F80CC00E7906F00306022E65
:1008100010D1D60800EB8608D8F8206057074FEAB9
:10082000D76C09FA0CF7BE430F6907FA0CF7374388
:10083000C8F8207006684FEA420C05FA0CF7BE4370
:100840000F7907F0030707FA0CF7374307604E6884
:1008500016F4403F6DD03B4E376847F48047376011
:10086000366822F0030706F480460096364E07EB02
:10087000060CDCF8086897073F0F09FA07F826EA24
:100880000806DFF8C880404503D14FF000081EE09D
:100890004FE0DFF8BC80404502D14FF0010816E080
:1008A000DFF8B080404502D14FF002080FE0DFF8DA
:1008B000A880404502D14FF0030808E0DFF89C8093
:1008C000404502D14FF0040801E04FF0070808FA54
:1008D00007F848EA0608CCF80888DAF800605746B6
:1008E000D1F804C09E435FEACC2C00D51E433E6085
:1008F000DBF800605F46D1F804C09E435FEA8C2CB1
:1009000000D51E433E60DEF800607746D1F804C093
:100910009E435FEA8C3C00D51E433E60084F083F73
:100920003E68D1F804C09E435FEACC3C00D51E432C
:100930003E60521C102AFFF431AFBDE8F88F000072
:10094000083C0140443802400030014000000240B1
:100950000004024000080240000C02400010024067
:100960000AB1816170470904FBE700000148806813
:10097000704700000400002002488168027811449A
:1009800081607047040000200B4810B5016841F4F5
:1009900000710160016841F480610160016841F407
:1009A00080710160032000F099F80F2000F006F834
:1009B00000F04AF8002010BD003C024030B505466A
:1009C0001C4887B00024016841F001010160006803
:1009D00006A900F00100009001A800F02BF900F03A
:1009E00059F91549154AB0FBF1F11548491E026045
:1009F00040F2E732C0E90324C0E90114846100F049
:100A000093FC040012D10E4800F0BCFC04000DD190
:100A1000192000F035F8102D07D2002229461920A0
:100A200000F03CF80748056000E0012407B02046CC
:100A300030BD00004438024040420F000000014039
:100A4000B4020020080000200C4882B0016841F484
:100A500080410160006800F4804000900748001F5A
:100A6000016841F0805101600068002200F0805070
:100A700000900F21901E02B000F010B844380240E0
:100A8000002809DB00F01F0201219140400980008D
:100A900000F1E020C0F8001170470000F0B40E4BE8
:100AA0001B680C46C3F30223C3F10705042D00D9CC
:100AB0000425191D072901D2002300E0DB1E0126B1
:100AC00006FA05F1491E214099409E40761E1640C7
:100AD0003143F0BC01F0CBB90CED00E0064900F069
:100AE000070208684FF6FF03184040EA0220034A55
:100AF00010430860704700000CED00E00000FA05AC
:100B00002DE9F0470E46050065D0DFF81481D8F8CE
:100B10000000F7B200F00700B04207D288F800707A
:100B2000D8F8000000F00700B04254D128683D4CCE
:100B3000810712D5400703D5206840F4E0502060BB
:100B40002878000703D5206840F4604020602068C2
:100B5000A96820F0F000084320602878C0072DD055
:100B6000304968680839012812D0022813D00328B8
:100B700011D00968890700292DDA216821F00301C5
:100B800001432160FFF7F2FE814641F2883A0EE010
:100B900009688903EFE709688901ECE7FFF7E6FEDA
:100BA000A0EB0901514502D90320BDE8F087206878
:100BB000696800F00C00B0EB810FEFD1D8F800109D
:100BC000404601F00701B14207D90770006800F004
:100BD0000700B04201D00120E7E72878400705D59B
:100BE0002068E96820F4E050084320602878000776
:100BF00006D52068296920F4604040EAC1002060E1
:100C000000F058F82168084AC1F30311515CC8404C
:100C10000649086006480068FFF7D0FE0020C4E7D8
:100C2000003C024008380240003700081000002055
:100C3000080000200F2202600C4A136803F003032F
:100C40004360136803F0F0038360136803F4E05318
:100C5000C36012684FF4E05303EAD2020261044811
:100C6000006800F007000860704700000838024084
:100C7000003C02400448054900680968044AC1F381
:100C80008221515CC84070471000002008380240A3
:100C9000103700080448054900680968044AC1F390
:100CA0004231515CC84070471000002008380240B3
:100CB00010370008154810B5006810F00C021448F1
:100CC00013D01449042A0FD0082A0ED10F4C241F28
:100CD0002268236802F03F025B0207D52068C0F358
:100CE0008810A0FB010106E0084610BD2168C1F391
:100CF0008811A1FB00010023FFF7CCFA2168C1F3A2
:100D00000141491C4900B0FBF1F010BD0838024018
:100D10000024F40040787D012DE9F84F04006ED0E6
:100D20002078DFF84C93C007A9F104054AD009F1F7
:100D300004000168C1F38101012908D00068C0F3F3
:100D4000810002280AD1D9F80000400206D528689F
:100D5000800337D560680028E1D033E06068B0F5E3
:100D6000803F10D0B0F5A02F286810D020F480303C
:100D70002860286820F4802028606068A8B1FFF708
:100D8000F5FD06460DE0286840F48030F4E740F4B5
:100D900080202860F7E700BFFFF7E8FD801B64288C
:100DA00073D828688003F7D50CE0FFF7DFFD06460F
:100DB00005E000BFFFF7DAFD801B6428F0D8286843
:100DC0008003F7D42078DFF8AC8280074FF0000A68
:100DD0003ED5A748001D016811F00C0F08D000682F
:100DE000C0F3810002280BD1D9F80000400207D4DB
:100DF0002868800716D5E068012800D112E033E1A9
:100E0000E068B8B10120C8F80000FFF7AFFD064662
:100E100005E000BFFFF7AAFD801B0228C0D82868A4
:100E20008007F7D52868216920F0F80040EAC10062
:100E300028600DE0C8F800A0FFF798FD064604E022
:100E4000FFF794FD801B02281FD828688007F7D47D
:100E50002078000722D5864F87486169703771B1C5
:100E600001210160FFF782FD064604E0FFF77EFDE9
:100E7000801B022809D838688007F7D50EE0C0F833
:100E800000A0FFF773FD064605E082E0FFF76EFD68
:100E9000801B02287DD838688007F7D42078400767
:100EA00068D5DFF8CCB100270BF13C0BDBF8000074
:100EB000C0000BD4DBF8001041F08051CBF80010DB
:100EC000DBF80000012700F0805000906B4E306886
:100ED000C00510D4306840F480703060FFF746FDE4
:100EE000009005E0FFF742FD0099401A022850D813
:100EF0003068C005F6D55E4EA0686C3601280FD06C
:100F00000528306810D020F001003060306820F0F3
:100F100004003060A068B8B1FFF728FD00900FE032
:100F2000306840F00100F4E740F004003060F7E77B
:100F3000FFF71CFD0099411A41F28830814266D8C2
:100F400030688007F4D50EE0FFF710FD009007E051
:100F5000FFF70CFD0099411A41F28830814256D8C2
:100F600030688007F4D42FB1DBF8001021F08051F5
:100F7000CBF80010A069C8B33D49091D0968C1F349
:100F8000810102294AD00228504607D0C8F86000E3
:100F900000E03CE0FFF7EAFC04463BE04746C8F8C7
:100FA0006000FFF7E3FC064605E000BFFFF7DEFC4C
:100FB000801B02282BD828688001F7D4D4E90701C8
:100FC0000843A16A2E4A490802EB0141626A41EADC
:100FD0008211084394F82C1040EA0161C9F800100E
:100FE00001203866FFF7C2FC044606E03EE000BF81
:100FF000FFF7BCFC001B022809D828688001F7D540
:1010000034E000BFFFF7B2FC001B022802D9032026
:10101000BDE8F88F28688001F4D427E00128F7D0D4
:10102000D9F80000E26900F4800191421CD1226AE3
:1010300000F03F01914217D147F6C071626A01404A
:10104000B1EB821F10D1A26A4FF0FF3300F44031A0
:1010500003EB5202B1EB024F06D194F82C1000F0D2
:101060007060B0EB016F01D00120D1E70020CFE725
:101070000438024000004742800E474200700040A2
:101080000000FFFF7047000038B5016804464A6859
:101090008868C043430606D5C30704D1D3435B0623
:1010A00001D4216C05E0830708D4D3431B0605D483
:1010B000616C01B02046BDE830400847830603D587
:1010C000430601D5C30551D4D3439B064ED44306F2
:1010D0000AD494F85130032B49D0636D43F00403D4
:1010E0006365CB688B680093830609D4636D43F016
:1010F000010363658B6800930B6823F040030B606A
:10110000C00506D4606D40F0080060652068806806
:101110000090606D002829D02068416821F0E0012E
:101120004160012084F85100900701D4D00722D0FB
:101130002068416821F003014160114DE06C40B12D
:101140000565E06CFFF7D0F918B1606D40F0400024
:101150006065A06C002809D00565A06CFFF7C4F994
:10116000002803D0606D40F04000606538BDC8685D
:101170008868009038BD2046FFF784FF38BD000026
:10118000B51A000870B5040009D0606A002540B1A6
:1011900025616561A56294F8510040B10CE0012021
:1011A00070BD6068B0F5827FF4D0E561F2E784F845
:1011B0005050204600F044F8022084F85100206886
:1011C000016821F040010160A088218900F482704B
:1011D00001F404410843A18901F400610843217C22
:1011E00001F002010843217D01F001010843218B38
:1011F00001F400710843217F01F03801084394F89D
:10120000201001F080010843218D01F400510843B2
:1012100021680860A069042101EA104094F82410B4
:1012200001F010010843216848602068C16921F479
:101230000061C1616565012084F85100002070BD26
:101240002DE9F04186B0064614216846FFF76CF898
:101250002F493068884258D12E480024016841F453
:1012600080510160006800F48050059029481438CE
:10127000016841F0010101600068694600F0010069
:101280000590E02000900220CDE9010403200390A6
:10129000052004902048FFF773FA214D1F484FF0B6
:1012A000C0672860C5E901744FF48068C5E9034848
:1012B0006C61AC61EC612C6228466C62FFF7F6F958
:1012C00008B1FFF7C6F8F564AE63154D13486035F5
:1012D0004830E5E802074020A5E81101104845F82C
:1012E00014496030AC61EC612C626C62FFF7DEF98E
:1012F00008B1FFF7AEF8B564002205212320AE63E4
:10130000FFF7CCFB2320FFF7BBFB06B0BDE8F08165
:1013100000300140443802400000024010640240A6
:10132000EC0000207047704710B5040003D094F81B
:101330003D0010B107E0012010BD002084F83C0002
:10134000204600F01EF8022084F83D00211D206890
:1013500000F020FC012084F8460084F83E0084F868
:101360003F0084F8400084F8410084F8420084F88B
:10137000430084F8440084F8450084F83D000020D0
:1013800010BD704790F83D10012901D00120704731
:10139000022180F83D100168CA6842F00102CA606B
:1013A00000680E4988420ED0B0F1804F0BD00C4936
:1013B000884208D00B49884205D00B49884202D0A8
:1013C0000A49884204D1816801F00701062903D047
:1013D000016841F0010101600020704700000140F8
:1013E0000004004000080040000C004000400140A4
:1013F00070472DE9F04104460068C66805694FF062
:101400000007A90713D5B10711D5F91E0161012005
:101410002077206880698007204602D0FFF7E8FF28
:1014200004E000F07EF8204600F07CF8277768079B
:1014300016D5700714D521686FF0040008610220EA
:1014400020772068806910F4407F204602D0FFF7A3
:10145000CFFF04E000F065F8204600F063F827773E
:10146000280715D5300713D521686FF008000861EB
:10147000042020772068C0698007204602D0FFF74B
:10148000B7FF04E000F04DF8204600F04BF8277756
:10149000E80616D5F00614D521686FF01000086133
:1014A000082020772068C06910F4407F204602D0D1
:1014B000FFF79EFF04E000F034F8204600F032F819
:1014C0002777E80708D0F00706D021686FF0010001
:1014D0000861204600F028F8280608D5300606D511
:1014E00021686FF0800008612046FFF71BFF680647
:1014F00008D5700606D521686FF0400008612046C7
:1015000000F01CF8A8060AD5B00608D521686FF0CF
:10151000200008612046BDE8F041FFF704BFBDE8A8
:10152000F08170477047000000680349884201D18C
:10153000FFF722BA70470000000001407047704773
:1015400070470000F8B5016804460868CA684B692E
:1015500010F00F0F4FF0000559D003F0010602F410
:101560009077374365D0C10705D0D10503D5616CAD
:1015700041F001016164410705D5D90703D0616CD1
:1015800041F002016164810705D5D90703D0616C80
:1015900041F004016164010707D502F020013143E5
:1015A00003D0616C41F008016164616C00293AD09C
:1015B000800604D5900602D5204600F069FB20681D
:1015C0004069616CC0F38010090700D460B3204605
:1015D00000F037FB20684069400621D520681430B0
:1015E00050E8001F21F0400140E80012002AF5D128
:1015F000E06BA8B172490165E06BFEF775FF00284A
:1016000011D0E06B016D01B0BDE8F04008478306E2
:101610000FD593060DD52046BDE8F84000F038BB45
:101620002046FFF78DFFF8BD2046FFF789FF656470
:10163000F8BD266B2023012E7ED1C6067CD5D606AA
:101640007AD508684868009048694FF0020640065D
:101650004DD5E26B106840684FF480770004000CB1
:101660003AD0A18D814237D9E085D069B8422DD0DA
:1016700020680C3050E8001F21F4807140E800120F
:10168000002AF5D12068143050E8001F21F0010134
:1016900040E80012002AF5D12068143050E8001FFD
:1016A00021F0400140E80012002AF5D184F84230D0
:1016B000256320680C3050E8001F21F0100140E83D
:1016C0000012002AF5D1E06BFEF7C5FE6663A08D1F
:1016D000E18D401A81B206E0A18D8142A8D1D06986
:1016E000B842A5D166632046FFF729FFF8BDA08D5B
:1016F000E18D401A81B2E08D0028F7D00029F5D0A5
:1017000020680C3050E8002F22F4907240E8002747
:10171000002FF5D12068143050E8002F22F001028C
:1017200040E80027002FF5D184F842302563206877
:101730000C3050E8002F00E006E022F0100240E8F4
:101740000023002BF3D1CDE705062BD5150629D5AF
:1017500094F841002128C9D1A068B0F5805F01D17B
:101760002069B0B1206A411C21622168007848607C
:10177000E08C401E0004000CE084B7D12068C168F2
:1017800021F08001C1602068C16841F04001C16062
:10179000F8BD206A0088C0F308004860206A801CF9
:1017A0002062E5E74006F3D55006F1D5CA68204629
:1017B00022F04002CA6084F8413000F0AAF8F8BD77
:1017C000351C000870B5040004D094F841000025D1
:1017D00010B106E0012070BD84F84050204600F0B2
:1017E00023F8242084F841002068C16821F40051C6
:1017F000C160204600F0AEFA2068016921F49041F2
:1018000001612068416921F02A0141612068C168B5
:1018100041F40051C1606564202084F8410084F8DF
:1018200042006563002070BD2DE9F04186B0064698
:1018300014216846FEF778FD3049306888425AD155
:101840002F480024016841F010010160006800F099
:10185000100005902A481438016841F00101016028
:101860000068694600F0010005904FF4C0600090E8
:101870000220CDE9010403200390072004902148B1
:10188000FEF77EFF214D20484FF000672860C5E934
:1018900001744FF48068C5E9034880156C61C5E99F
:1018A00006402C6228466C62FEF700FF08B1FEF786
:1018B000D0FDF563AE63154D134860357830E5E82B
:1018C00002074020A5E81101104845F8144960308E
:1018D000AC61EC612C626C62FEF7E8FE08B1FEF7C9
:1018E000B8FDB563002205212520AE63FFF7D6F8C9
:1018F0002520FFF7C5F806B0BDE8F08100100140D3
:10190000443802400000024040640240F4010020DC
:1019100070477047FEE70000154808B5016841F4BC
:10192000800101600068002200F480000090052121
:101930003820FFF7B3F83820FFF7A2F8002205217E
:101940003A20FFF7ABF83A20FFF79AF8002205217A
:101950003B20FFF7A3F83B20FFF792F80022052178
:101960004620FFF79BF8BDE808404620FFF788B8FF
:101970003038024010B5044A0021044800F0E4FA6F
:101980000349086010BD0000D4360008C51A0008DD
:101990000000002030B587B014216846FEF7C4FC73
:1019A0001D480024016841F004010160016801F054
:1019B00004010591016841F080010160016801F0B6
:1019C00080010591016841F0010101600068134D3B
:1019D00000F001000590002202212846FEF7C0FF1A
:1019E000012210212846FEF7BBFF122000900120A3
:1019F000CDE90104694628460394FEF7C1FE0C2098
:101A000000904FF48810CDE9010469462846FEF79E
:101A1000B7FE07B030BD0000303802400000024081
:101A2000104810B50E4901604FF4827141600021E9
:101A30008160C1604FF400720161C0E90512182293
:101A4000C0E90721416281620A21C162FFF79AFB66
:101A5000002803D0BDE81040FEF7FBBC10BD00001D
:101A600000300140940000200D4810B50B49016082
:101A70004FF41651416000214FF40052C0E90212A8
:101A80000C22C0E904128161C161FFF79BFE0028AE
:101A900003D0BDE81040FEF7DCBC10BD00100140D3
:101AA000AC010020FEE7FEE70148FFF7EDBA0000B9
:101AB0009400002010B5806B0021C187C186FFF71C
:101AC000E1FA10BD012000F004FAFBE710B54FF079
:101AD000E020006901F048FC012803D0BDE8104077
:101AE00001F076B910BD000030B593B030216846E2
:101AF000FEF71AFC14210CA8FEF716FC1C48002463
:101B0000016841F080510160006800F08050119040
:101B10001848016841F4404101600068022500F462
:101B200040401190012003901020049000950695EC
:101B30000820CDE907406420CDE9090504200B9079
:101B40006846FFF7E9F808B172B6FEE70F20CDE965
:101B50000C054FF48050CDE90E4003210CA81094E1
:101B6000FEF7CEFF002801D072B6FEE713B030BDFD
:101B700040380240007000400248016841F47001A2
:101B80000160704788ED00E00148FFF732BC0000BB
:101B9000B4020020F0B502681F4B204C204D214EAE
:101BA0004FF0804C984207D0604505D0A04203D04A
:101BB000A84201D0B04203D122F070074A683A43EC
:101BC000984210D060450ED0A0420CD0A8420AD056
:101BD000B04208D0144CA04205D0144CA04202D010
:101BE000134CA04203D122F44074CA6822434C69CA
:101BF00022F0800222438C68C4620C68846298429E
:101C000001D109690163016841F00401016001210A
:101C100041610260F0BD000000000140000400408E
:101C200000080040000C004000400140004401401A
:101C30000048014010B5806B0021C185FFF780FC92
:101C400010BD01680C3151E8002F22F4907241E878
:101C50000023002BF5D10168143151E8002F22F048
:101C6000010241E80023002BF5D1016B012909D1C4
:101C700001680C3151E8002F22F0100241E80023E6
:101C8000002BF5D1202180F842100021016370471C
:101C900008B590F84210222901D0022008BD8268C0
:101CA0004FF480539A4201D1016921B1816A9A426D
:101CB0001BD04AB10AE00268816A5268C2F3080286
:101CC0000A80816A891C08E0026972B10268526860
:101CD00002F07F020A70816A491C8162C18D491E2F
:101CE0000904090CC18503D01BE002685268F1E7C2
:101CF0000168CA6822F02002CA600168CA6822F43A
:101D00008072CA6001684A6922F001024A6120219A
:101D100080F8421000214163026B012A03D0FFF7D3
:101D2000F7FD002008BD016301680C3151E8002F68
:101D300022F0100241E80023002BF5D101680A6867
:101D4000D20602D50A6849680091818DFFF7F7FB3A
:101D5000E7E7000070B5044600680169E26821F415
:101D60004051114301612169A068E269084361693A
:101D7000114308432168CA6849F20C639A4302433D
:101D8000CA6020684169A26921F440711143416130
:101D900031492068884202D03049884202D1FEF79A
:101DA00079FF01E0FEF766FFE2690023192164254F
:101DB0003226B2F5004F626828D0A0FB0101930FD4
:101DC0009200FEF767FA0146B0FBF5F06FF01802DB
:101DD000504301EB800006EB0010B0FBF5F000F083
:101DE000F002B1FBF5F002EB0012B1FBF5F06FF081
:101DF0001803584301EB800006EB0010B0FBF5F030
:101E000000F00F0021681044886070BDA0FB010144
:101E100092185B41FEF73EFA0146B0FBF5F0020175
:101E2000B1FBF5F06FF01803584301EB800006EBAF
:101E3000C000B0FBF5F000F0F80002EB4002B1FB8F
:101E4000F5F0584301EB800006EBC000B0FBF5F065
:101E500000F00700D6E70000001001400014014028
:101E60000148FFF76FBB0000AC010020FEE7090747
:101E7000090E002804DB00F1E02080F80014704710
:101E800000F00F0000F1E02080F8141D704702E020
:101E900008C8121F08C1002AFAD1704770470020F5
:101EA00001E001C1121F002AFBD17047FEF76CFD53
:101EB000FFF71AFEFFF76EFDFFF72EFDFFF7D4FDCB
:101EC000FFF7AEFD00F012F8FFF754FD00F020F828
:101ED000FEE710B5EFF3058111B16FF0050403E0E3
:101EE000002408B100F000FE204610BDEFF305808D
:101EF00010B16FF0050070470448016811B14FF050
:101F0000FF3070470121016000207047640000200D
:101F100010B5EFF3058010B16FF0050010BD084853
:101F20000168012902D04FF0FF3010BD054A0021A1
:101F300082F8141D0221016000F03EFE002010BD59
:101F4000640000200BE000E02DE9FF414FEA0103AF
:101F50004FF00005EFF30581039549BB40B380279F
:101F6000182100244AB3166806B1344696691EB19A
:101F70003146761E382E02D21679F60703D000209D
:101F800004B0BDE8F081566906B1B708D2F808C0C0
:101F9000BCF1000F0DD0D5685C2D18D312693AB191
:101FA00036B18DE806103A46214601F0B2F90390A9
:101FB0000DE0D6685EB912694AB903AACDE90012EC
:101FC000BAB2214601F078F9012800D003950398B0
:101FD000D6E700002DE9F041134C0F460546E668B0
:101FE0002068001D00F04AFC681C07D137B1216849
:101FF000BDE8F0410D48091D00F092BC2068354451
:10200000B5424560216805D2A06BBDE8F041091DCD
:1020100000F06EBC606B091D00F06AFCA06A85428E
:1020200000D2A562BDE8F08114000020EC0700207A
:102030002DE9F041054600F07FFC2D4CA068401CC6
:10204000A06020682B4F10B1606930B32BE0256091
:10205000A068012827D1002606EB860007EB800048
:1020600000F038FC761C382EF6D3234800F032FC02
:102070002148143000F02EFC1F48283000F02AFCC4
:102080001D483C3000F026FC1B48503000F022FC7C
:10209000194860631430A06305E02068E96AC06AEB
:1020A000884200D82560606A401C60626864E86A03
:1020B0002169884200D9206100EB800007EB800095
:1020C000291D00F02DFC00F057FC606900280CD0A1
:1020D0002068E96AC06A884207D208494FF08050F8
:1020E0000860BFF34F8FBFF36F8FBDE8F081000032
:1020F000140000203C0300209C07002004ED00E0B9
:1021000038B500F019FC104C2068C8B90F4800F031
:10211000E1FB0E48143000F0DDFB0C48E0601430A9
:1021200020610A4B0020F03B009003F15002102187
:102130000A2000F063FE206010B105A100F09EFCB3
:10214000BDE8384000F018BC50000020F008002026
:10215000546D72510000000030B4026C0B46002A2E
:102160000BD0C1681144C1608468A14201D30168E9
:10217000C16030BC1846FEF7BEB830BC70472DE9D0
:10218000F041856B174604460026026C82B1C7B148
:10219000E068FEF7B0F8E168206C091AE160226897
:1021A000914202D2A168081AE060022F16D017E00F
:1021B0002068A8B9A06801F04FF906460020A06089
:1021C0000EE06068FEF797F8216C60680844606074
:1021D000A168884204D32068606001E005B16D1EEB
:1021E0006D1CA5633046BDE8F08110B5044690F83B
:1021F000590058B101280CD002280FD0502080F38C
:102200001188BFF34F8FBFF36F8FFEE7206B00F095
:10221000C7FB2046BDE8104000F0C2BB10BD000067
:1022200010484FF4F041420706D0C01D0D4920F080
:102230000700411AC1F5F0410B4A00230144C2E9ED
:1022400000030839183A21F0070111604B600B6058
:102250000B1AC0E9001393604FF0004053605061C7
:1022600070470000D00F002080000020144E154C55
:10227000A6F29C474FF08058DFF84C9012E000BF68
:1022800000F05AFBF068C568281D00F0F7FAA06856
:10229000401EA0606068401E606000F06DFB284634
:1022A000FFF7A3FF60680028EAD138680128F9D950
:1022B000C9F80080BFF34F8FBFF36F8FF2E70000C4
:1022C000D80700201400002004ED00E070B51D4682
:1022D000049C51B1C4F80020C4E90F01012120463B
:1022E00000F0C0FD84F84C5070BD2460F4E700009D
:1022F0002DE9F05F8846DDE90B9415468346910091
:102300009A460A9EA522206BFEF707F86FF003019C
:10231000206B01EB8501084420F00707780707D000
:10232000502080F31188BFF34F8FBFF36F8FFEE70C
:102330000025B8F1000F0FD05FF00000221818F848
:10234000001082F8341018F8001011B1401C102849
:10235000F4D384F8435001E084F83450382E00D38D
:102360003726E662C4E91365201D00F0BEFA04F1C9
:10237000180000F0BAFA2461C6F138006462A06166
:10238000656584F8585052465946384600F060FA60
:102390002060B9F1000F01D0C9F80040BDE8F09FFE
:1023A00030B5114900E011460A688242FBD34B6800
:1023B0005C18844203D1406818444860084643686A
:1023C0001C18944209D1084C183C2468A24209D038
:1023D00052681A4442600A6812680260814200D062
:1023E000086030BD0460F9E78000002070B500246B
:1023F00041600B4D0061914206D8D11A8269914229
:1024000006D2011D286907E09A4203D2994201D3FE
:10241000012403E0011DE86800F06AFA204670BD5F
:102420005000002010B5044600F086FAA06B28B1D9
:102430005FF0000400F0A0FA204610BD0124F9E787
:1024400030B589B03C4D6EE00498002806DADDE92D
:102450000601059A90470498002864DB069C606991
:1024600010B1201D00F00AFA03A800F0D7F80246C8
:1024700004980A2857D2DFE800F00505052D334AF5
:1024800005052D3394F8280040F0010084F8280059
:102490000599A069059B01442046FFF7A7FF68B393
:1024A000216A2046884794F8280040073BD5002041
:1024B00000900598A169002342181946204601F0B2
:1024C000D5F8D8B9502080F31188BFF34F8FBFF3F0
:1024D0006F8FFEE714F8280F20F00100207022E033
:1024E00094F8280040F0010084F828000598A061C5
:1024F00028B1811813462046FFF778FF13E05020DB
:1025000080F31188BFF34F8FBFF36F8FFEE794F80E
:102510002800810703D4204600F042FA03E020F0AF
:10252000010084F82800002204A9286800F0EEFDCC
:10253000002889D109B030BD500000202DE9FC41B0
:102540000F46054600F07CFB01A800F067F8044642
:10255000019818B100F0F8FFBDE8FC81254EAFB13D
:1025600030690068D0B30027291B3A46306800F074
:1025700099FA00F0E9FF0028EED11F494FF0805092
:102580000860BFF34F8FBFF36F8FE5E7A542EBD82D
:1025900000F0DAFFF0682746C068C468201D00F02C
:1025A0006DF994F82800410719D5A0692B46411907
:1025B0003A462046FFF71AFFA8B10020034601461D
:1025C00000902A46204601F051F860B9502080F36F
:1025D0001188BFF34F8FBFF36F8FFEE707E020F046
:1025E000010084F82800216A20468847B4E70127C3
:1025F000BAE700005000002004ED00E00648416BFF
:10260000096829B1416BC968C96849688162704726
:102610004FF0FF31FAE700001400002070B50546C6
:1026200000F0B0FE064E0446B068844203D200F0CB
:1026300009F8012000E0002028602046B46070BD49
:1026400050000020F8B5194D20E0C068C468066845
:10265000201D00F013F9216A2046884794F82800CD
:10266000400713D5A0693044B04206D924616060A8
:10267000211DE86800F03CF908E00020034601460F
:1026800000903246204600F0F1FF38B1E86801685A
:102690000029DAD12969C5E90310F8BD502080F37B
:1026A0001188BFF34F8FBFF36F8FFEE750000020FC
:1026B00008484068401C4FF0500080F3118804D057
:1026C000BFF34F8FBFF36F8FFEE7BFF34F8FBFF3A3
:1026D0006F8FFEE788000020074CE068016841B179
:1026E000C0680021D0F80000FFF728FFFFF7A8FE20
:1026F000F3E701210020F7E7500000202DE9F04129
:10270000044600F019F994F9455004F1240609E053
:10271000606A48B1304600F0DFFE08B100F012FAFE
:102720006D1E6DB2002DF3DC4FF0FF3684F845606E
:1027300000F022F900F000F994F9445004F1100778
:1027400009E0206948B1384600F0C6FE08B100F043
:10275000F9F96D1E6DB2002DF3DC84F84460BDE81C
:10276000F04100F009B900002DE9F04105460027CD
:1027700000F066FA354E306808B9FFF751FD706910
:10278000054216D1ADB1083568070ED005F0070037
:10279000C0F108000544680707D0502080F3118875
:1027A000BFF34F8FBFF36F8FFEE715B1706885429F
:1027B00002D900F0C9FE39E02448183001460C68FF
:1027C00001E020460C466168A94202D22168002936
:1027D000F7D131688C42ECD00768216801606068ED
:1027E0000837411B10290ED96019420707D0502025
:1027F00080F31188BFF34F8FBFF36F8FFEE7416007
:102800006560FFF7CDFD61687068401A7060B2685E
:10281000904200D2B060706901430020C4E9000119
:10282000F068401CF06000F08FFE0FB900F050F827
:10283000780707D0502080F31188BFF34F8FBFF384
:102840006F8FFEE73846BDE8F08100006800002089
:1028500010B5031F4FF080741C601B1F21F0010195
:102860001960191F044B0B6014390A60091F6FF0BF
:10287000020244380A6010BDB1260008D0E90132D6
:1028800001699A60D0E901235A604A68824201D105
:1028900082684A60002202610868401E0860086879
:1028A00070470000034B036003F15C000860802068
:1028B0001060704718090020044B036003F15C00AE
:1028C00008604FF48070106070470000740B0020A7
:1028D0007047704700F108014FF0FF32C0E9011264
:1028E000C1600161002101607047002101617047F2
:1028F00030B50B685A1C02D000F1080202E00269F0
:1029000004E02246546825689D42FAD953684B601A
:1029100099608A60516008610168491C016030BD9E
:1029200042684A6093688B6093685960916008615F
:102930000168491C01607047502080F31188BFF383
:102940004F8FBFF36F8F0A494868401C48600128C9
:102950000CD10848006810F0FF0F07D0502080F31A
:102960001188BFF34F8FBFF36F8FFEE770470000F2
:102970008800002004ED00E00849486828B1401EA6
:10298000486001D180F311887047502080F311888E
:10299000BFF34F8FBFF36F8FFEE70000880000206A
:1029A00070B500282AD0164DA0F108046068696946
:1029B000084207D1502080F31188BFF34F8FBFF337
:1029C0006F8FFEE722683AB1502080F31188BFF381
:1029D0004F8FBFF36F8FFEE78843606000F030F9E0
:1029E00060686968084468602046FFF7D9FC286978
:1029F000401C2861BDE8704000F0A6BD70BD00001D
:102A0000680000204FF0E02000210161816105494C
:102A10004FF47A720968B1FBF2F1491E4161072156
:102A2000016170471000002010B5FDF71DFC114931
:102A300010280ED300F1E02090F8F0030A789042BD
:102A400007D2502080F31188BFF34F8FBFF36F8FF1
:102A5000FEE709480068896800F4E060884207D909
:102A6000502080F31188BFF34F8FBFF36F8FFEE7C5
:102A700010BD0000880000200CED00E010B5084BF0
:102A8000002200BF53F832401CB1521C082AF9D36F
:102A900010BD43F8321003EBC201486010BD0000C6
:102AA000FC02002070B515460E460446FFF744FFB1
:102AB00094F944100020491C01D184F8440094F991
:102AC0004510491C01D184F84500FFF755FFA06B64
:102AD00028B92A46314604F1240000F051F8204676
:102AE000BDE87040FFF70ABE10B5020014D00F48D1
:102AF000006B38B1502080F31188BFF34F8FBFF3C4
:102B00006F8FFEE700F09CF800211046FFF762FA95
:102B100000F01AFD002807D105494FF080500860E9
:102B2000BFF34F8FBFF36F8F10BD00001400002064
:102B300004ED00E002490A6A0260C968416070471A
:102B40001400002001490120C861704714000020D2
:102B500010B50C4650B1094909681831FFF7C8FE95
:102B60002046BDE810400121FFF734BA502080F321
:102B70001188BFF34F8FBFF36F8FFEE71400002063
:102B800070B514460D4668B10A4909681831FFF757
:102B9000C7FE0CB14FF0FF3521462846BDE8704016
:102BA000FFF718BA502080F31188BFF34F8FBFF39F
:102BB0006F8FFEE71400002030B587B00024039427
:102BC00005AA04A903A80494FFF76CFEDDE903013C
:102BD0000094CDE90110002315A11748059A00F0D3
:102BE00098FB164D0028E8621FD000F00FFD012869
:102BF00009D0401C19D1502080F31188BFF34F8FAA
:102C0000BFF36F8FFEE7502080F31188BFF34F8F23
:102C1000BFF36F8F4FF0FF30A86201206861EC6056
:102C200007B0BDE8304000F059B807B030BD000033
:102C300049444C45000000006D22000814000020AB
:102C40000248016B491C016370470000140000201A
:102C500010B5204C206B10B10120E06110BD0020A8
:102C6000E06120684FF0A531006B02688A4208D10C
:102C700042688A4205D182688A4202D1C06888428D
:102C800004D0216820683431FFF723FE20691249FF
:102C900001E0B8B1401E00EB800251F82220002A6A
:102CA000F7D000EB800201EB820101F108034A68D2
:102CB00052684A609A4201D152684A60D1682160E4
:102CC000206110BD502080F31188BFF34F8FBFF3F8
:102CD0006F8FFEE7140000203C0300201CB537482E
:102CE0000168374A914207D1502080F31188BFF321
:102CF0004F8FBFF36F8FFEE700683149491E88424E
:102D000007D1502080F31188BFF34F8FBFF36F8F2F
:102D1000FEE72C4908780190FF20087008788DF8AC
:102D200000009DF800009DF8002000F0F0009042A7
:102D300007D0502080F31188BFF34F8FBFF36F8F00
:102D4000FEE79DF80000204C00F0500020700720A6
:102D5000A06005E09DF8002052008DF80020401E84
:102D60009DF800201206F5D4A060032807D050205B
:102D700080F31188BFF34F8FBFF36F8FFEE74FF4DF
:102D80004070A060019808700C482030016841F440
:102D900070010160016841F070410160FFF732FE8F
:102DA00000206060FDF728FA0848016841F04041C2
:102DB0000160FDF70DFA00201CBD000000ED00E0F1
:102DC00071C20F4100E400E08800002034EF00E011
:102DD00010B5502080F31188BFF34F8FBFF36F8F72
:102DE00000F0D6FA18B104494FF080500860002076
:102DF00080F3118810BD000004ED00E038B5049D9B
:102E000018B153B1CAB181B120E0502080F31188CC
:102E1000BFF34F8FBFF36F8FFEE7502080F3118811
:102E2000BFF34F8FBFF36F8FFEE7502080F3118801
:102E3000BFF34F8FBFF36F8FFEE739B1502080F3A0
:102E40001188BFF34F8FBFF36F8FFEE750241C46EE
:102E5000012384F846302B460094FFF737FA2046CA
:102E600038BD000070B50D46040025D0FFF764FDA5
:102E7000D4E90F20216802FB0011A1600021A163A9
:102E8000216861600A46D4E90F01401E00FB012160
:102E9000E16021464FF0FF3001F8440F487004F123
:102EA00010008DB1FFF716FD04F12400FFF712FDAD
:102EB000FFF762FD012070BD502080F31188BFF341
:102EC0004F8FBFF36F8FFEE721690029F0D000F02C
:102ED00003FB0028ECD004494FF080500860BFF39A
:102EE0004F8FBFF36F8FE3E704ED00E02DE9FF475D
:102EF00082B01D468A464FF00008040003D0BAF1A4
:102F0000000F08D011E0502080F31188BFF34F8FDD
:102F1000BFF36F8FFEE7206C38B1502080F311882B
:102F2000BFF34F8FBFF36F8FFEE7022D0AD1E06B27
:102F3000012807D0502080F31188BFF34F8FBFF3D3
:102F40006F8FFEE700F010FA3F4F4FF000094FF08F
:102F5000805648B9049838B1502080F31188BFF3E7
:102F60004F8FBFF36F8FFEE7FFF7E6FCA06BE16BBF
:102F7000884207D3022D05D00498D0B1B8F1000FD4
:102F80001AD01EE02A4651462046FFF7F8F8616A3B
:102F900019B104F1240000F09FFA20B13E60BFF3A4
:102FA0004F8FBFF36F8FFFF7E7FC012006B0BDE83E
:102FB000F087FFF7E1FC22E06846FFF7BBFD4FF02A
:102FC0000108FFF7D9FCFFF73BFEFFF7B5FC94F9CA
:102FD0004400401C01D184F8449094F94500401C01
:102FE00001D184F84590FFF7C7FC04A9684600F0BA
:102FF00029F930B12046FFF781FB00F0A5FA002047
:10300000D4E7FFF799FCA06BE16B884213D1FFF77F
:10301000B3FC04F110000499FFF79AFD2046FFF776
:103020006DFB00F091FA00289ED13E60BFF34F8FF8
:10303000BFF36F8F98E7FFF79FFC2046FFF75EFB1B
:1030400000F082FA90E7000004ED00E02DE9F0477F
:103050001F4690468946040003D0B9F1000F08D0FE
:1030600011E0502080F31188BFF34F8FBFF36F8FB3
:10307000FEE7206C38B1502080F31188BFF34F8FEA
:10308000BFF36F8FFEE7022F0AD1E06B012807D054
:10309000502080F31188BFF34F8FBFF36F8FFEE78F
:1030A000FFF7C2FC5020EFF3118680F31188BFF3C5
:1030B0004F8FBFF36F8FA06BE16B884206D3022F57
:1030C00004D0002086F31188BDE8F08794F94550BC
:1030D000A06B3A4649462046FFF751F8681C04D0D9
:1030E0006D1C84F845500120ECE7606A0028FAD096
:1030F00004F1240000F0F0F90028F4D0B8F1000F3A
:10310000F1D00121C8F80010EDE700002DE9F747E4
:10311000002683B08A46040003D0BAF1000F08D01D
:1031200011E0502080F31188BFF34F8FBFF36F8FF2
:10313000FEE7206C38B1502080F31188BFF34F8F29
:10314000BFF36F8FFEE700F00FF9DFF8F4804FF068
:1031500000094FF0805748B9059838B1502080F3E6
:103160001188BFF34F8FBFF36F8FFEE7FFF7E4FBCC
:10317000A56BC5B151462046FEF7EEFF6D1EA56357
:10318000206950B104F1100000F0A6F928B1C8F888
:103190000070BFF34F8FBFF36F8FFFF7EDFB012080
:1031A00006B0BDE8F087059808B11EB106E0FFF74C
:1031B000E3FB27E06846FFF7BDFC0126FFF7DCFBD9
:1031C000FFF73EFDFFF7B8FB94F94400401C01D126
:1031D00084F8449094F94500401C01D184F845904E
:1031E000FFF7CAFB05A9684600F02CF80028204626
:1031F0000AD0FFF783FA00F0A7F92046FFF712F98B
:103200000028B3D00020CBE7FFF70CF990B104F110
:1032100024000599FFF79CFC2046FFF76FFA00F0A9
:1032200093F90028A2D1C8F80070BFF34F8FBFF305
:103230006F8F9BE72046FFF761FA00F085F995E76D
:1032400004ED00E02DE9F0410C46050011D0C4B1B9
:10325000FFF772FB174BDA686E682068911B471CFA
:1032600017D02F681B6A9F4219D0964217D80124A5
:1032700010E0502080F31188BFF34F8FBFF36F8FA2
:10328000FEE7502080F31188BFF34F8FBFF36F8F9D
:10329000FEE70024FFF770FB2046BDE8F08188427E
:1032A00005D9401A20602846FFF744FCF1E70020CA
:1032B0002060DCE7140000202DE9FF5F8346DDE994
:1032C0000E87994616468A469000FFF74DFA05008C
:1032D0001CD05C20FFF748FA040014D000202563BE
:1032E00084F85900CDE90240CDE900874B463246CB
:1032F00051465846FEF7FCFF2046FEF799FE012096
:1033000004B0BDE8F09F2846FFF74AFB4FF0FF30BE
:10331000F6E7F0B585B0DDE90B640A9DA6B1DCB136
:103320005C2700972663022684F85960002604AFC4
:10333000CDE90246CDE90057FEF7DAFF2046FEF759
:1033400077FE049805B0F0BD502080F31188BFF3DC
:103350004F8FBFF36F8FFEE7502080F31188BFF3CC
:103360004F8FBFF36F8FFEE70548416919B1006BBE
:1033700018B10020704701207047022070470000FC
:10338000140000200148C0687047000014000020AD
:103390002DE9F0412E4C0027206B28B1A069401C7C
:1033A000A0613846BDE8F081E668761CE66013D17E
:1033B000606B006838B1502080F31188BFF34F8FE5
:1033C000BFF36F8FFEE7606BA16B6163A063206A40
:1033D000401C2062FFF712F9A06ADFF8788086426D
:1033E00009D3606B0068A0B1606BC068C56868688D
:1033F000864211D2A0622068C06A00EB800158F8B2
:103400002100012800D90127E0690028C9D001273F
:10341000C7E74FF0FF30EDE7281DFFF72FFAA86A46
:1034200018B105F11800FFF729FAE86A2169884206
:1034300000D9206100EB800108EB8100291DFFF716
:103440006FFAE86A2168C96A8842CAD30127C8E7C7
:10345000140000203C03002070B504004FF0000170
:1034600033D01B4D2868844207D0502080F3118848
:10347000BFF34F8FBFF36F8FFEE7206D38B1401E53
:103480002065E36CE26A9A421FD040B11DE05020F3
:1034900080F31188BFF34F8FBFF36F8FFEE7201DBE
:1034A000FFF7ECF9E06CE062C0F13800A061E06A7F
:1034B0002969884200D92861064900EB800001EBA8
:1034C0008000211DFFF72CFA0121084670BD000085
:1034D000140000203C03002070B5C068C46854B1DB
:1034E00004F118000646FFF7C9F9144D286B50B1D6
:1034F0003146134815E0502080F31188BFF34F8FF9
:10350000BFF36F8FFEE7201DFFF7B8F9E06A296966
:10351000884200D928610B4900EB800001EB800054
:10352000211DFFF7FDF9E06A2968C96A884202D9BE
:103530000120E86170BD002070BD00001400002073
:10354000C40700203C0300202DE9F0472C4D002447
:103550002746286B38B1FFF7EFF9286B401E286328
:10356000286B40B146E0502080F31188BFF34F8FA5
:10357000BFF36F8FFEE7A968224E0120D1B3A6F5F5
:10358000916980463068E0B1F068C46804F11800C1
:10359000FFF774F9201DFFF771F9E06A2969884285
:1035A00000D9286100EB800109EB8100211DFFF7A4
:1035B000B7F9E06A2968C96A8842E3D3C5F81C8074
:1035C000E0E70CB1FFF71AF8AC694CB14FEA080616
:1035D000FFF7DEFE00B1EE61641EF9D10020A861A4
:1035E000E86938B10849012738070860BFF34F8FF1
:1035F000BFF36F8FFFF7C0F93846BDE8F0870000D2
:1036000014000020C407002004ED00E010B586B0CF
:10361000FEF776FD114C2068B8B1002003900490AD
:1036200005AA04A903A8FFF747F9DDE90321022051
:103630008DE8070000230AA10B48059AFFF769FEF1
:10364000606010B106B0012010BD502080F31188D9
:10365000BFF34F8FBFF36F8FFEE7000050000020D5
:10366000546D722053766300D92600082DE9FF417E
:103670001E46134602000A9D4FF0000016D0144C5F
:103680002768002F0FD0CDE900130292062917DA20
:10369000FFF76AFE02284FF000030FD000226946B0
:1036A0002068FFF723FC04B0BDE8F081502080F3D0
:1036B0001188BFF34F8FBFF36F8FFEE72A46EEE707
:1036C0000023324669463846FFF7C0FCEBE70000AE
:1036D0005000002018370008000000000000000023
:1036E00000000000000000000002000018000000C0
:1036F0000000000000000000000610160006101672
:103700000000000000000000010203040607080991
:10371000000000000102030464656661756C745466
:1037200061736B0044370008000000209400000023
:103730008E1E0008D8370008940000203C8B000043
:103740009E1E0008000000000100000010000000A4
:10375000000000000024F400000000000000000051
:103760000000000000000000000000000000000059
:103770000000000000000000000000000000000049
:103780000000000000000000000000000000000039
:103790000000000000000000000000000000000029
:1037A0000000000000000000000000000000000019
:1037B0000000000000000000000000000000000009
:1037C00000000000000000000000000000000000F9
:0837D000AAAAAAAA0000000049
:040000050800019955
:00000001FF
