:020000040800F2
:10C00000A0EE012031C30008C70C0108B1080108E7
:10C01000850C0108B1D40008D91C010800000000FB
:10C0200000000000000000000000000071C20008D5
:10C03000A1D9000800000000CDC20008D5120108F7
:10C040004BC300084BC300084BC300084BC3000898
:10C050004BC300084BC300084BC300084BC3000888
:10C06000A3D90008ADD900084BC300084BC3000892
:10C070004BC300084BC300084BC300084BC3000868
:10C080004BC300084BC300084BC30008000000006E
:10C090000000000000000000000000004BC300088A
:10C0A0004BC30008B51301084BC300084BC300087D
:10C0B0004BC300084BC300084BC300084BC3000828
:10C0C0004BC300084BC300084BC30008F50E010822
:10C0D0004BC30008F91B01084BC300080000000017
:10C0E0004BC300084BC300084BC30008000000000E
:10C0F0000000000000000000000000004BC300082A
:10C10000000000004BC300084BC300084BC30008ED
:10C11000000000000000000000000000000000001F
:10C12000B5D700084BC30008C5D70008D5D700080D
:10C130004BC30008000000000000000000000000E9
:10C140000000000000000000000000004BC30008D9
:10C150004BC300084BC30008E5D700084BC30008D9
:10C160004BC300084BC300080000000000000000A3
:10C1700000000000000000000000000000000000BF
:10C18000000000004BC30008000000000000000099
:10C190004BC300084BC300084B1C012B98BF7047D2
:10C1A0002DE9F003911C9B08B1F80480B1F80290CE
:10C1B0000A8831F802CC8044814402448444D9F88E
:10C1C0000070D8F800601568DCF80040C9F800601D
:10C1D000C8F80070CCF800501460D9F80470D8F892
:10C1E00004605568DCF80440C9F80460C8F80470BD
:10C1F000CCF80450546008315B1ED5D1BDE8F00383
:10C2000070474B1C012B98BF70472DE9F003911C20
:10C210009B08B1F80480B1F802900A8831F802CC8A
:10C2200000EB580800EB590900EB520200EB5C0CE4
:10C23000D9F80070D8F800601568DCF80040C9F83B
:10C240000060C8F80070CCF80050146008315B1E24
:10C25000DFD1BDE8F0037047DFF810D001F0D8F867
:10C2600000480047BD1D0108AFF30080A0EE01208B
:10C270002C4B19680868B0E8F04F80F30988BFF3C9
:10C280006F8F4FF0000080F31188704700000000AE
:10C2900008480068006880F308884FF0000080F3C9
:10C2A000148862B661B6BFF34F8FBFF36F8F00DFA4
:10C2B00000BF00BF08ED00E0DFF80C00016841F4AA
:10C2C00070010160704700BF88ED00E0EFF3098066
:10C2D000BFF36F8F134B1A681EF0100F08BF20EDCD
:10C2E000108A20E9F04F106009B44FF0500080F33D
:10C2F0001188BFF34F8FBFF36F8F07F0AFF94FF087
:10C30000000080F3118809BC19680868B0E8F04F94
:10C310001EF0100F08BFB0EC108A80F30988BFF33D
:10C320006F8F704750000020EFF3058070470000CA
:10C330000648804706480047FEE7FEE7FEE7FEE7BF
:10C34000FEE7FEE7FEE7FEE7FEE7FEE7A1130108D2
:10C3500059C200089FED3D0A5FEA920C57D000BF1A
:10C36000D0ED000A90ED011A0B1D60EEA00A083016
:10C3700041EE010AF5EEC00AF1EE10FAA6BFB1EEE9
:10C38000E01A81ED001A81ED000AD0ED000A90ED6F
:10C39000011A191D60EEA00A083041EE010AF5EEFF
:10C3A000C00AF1EE10FAA6BFB1EEE01A83ED001A52
:10C3B00083ED000AD0ED000A90ED011A0B1D60EE2E
:10C3C000A00A083041EE010AF5EEC00AF1EE10FABB
:10C3D000A6BFB1EEE01A81ED001A81ED000A90EDE2
:10C3E000001AD0ED010A191D21EE011A083000EEE5
:10C3F000A01AB5EEC01AF1EE10FAA6BFF1EEC10A0E
:10C40000C3ED000A83ED000ABCF1010CA8D112F0C3
:10C41000030208BF704700BFD0ED000A90ED011A7B
:10C420000B4660EEA00A091D083041EE010AF5EE48
:10C43000C00AF1EE10FAA6BFB1EEE01A83ED001AC1
:10C4400083ED000A521EE7D1704700000000000093
:10C4500091ED000AD1ED010AD0F814C030EE001AB7
:10C4600070EEA00A0088B6EE000A431E71EE201A94
:10C4700071EE600A0CF1080001EBC30C61EE801A4A
:10C4800060EE800A0831C2ED001AC2ED010A0832DE
:10C490009CED003A91ED001ADCED010AD1ED011A94
:10C4A00073EE413AD0ED002A90ED012A30EEA14A18
:10C4B00062EEA34A31EE031A62EE233A71EEE00A0D
:10C4C00022EE042A31EE241A62EE842A70EEA30AC8
:10C4D000083031EE021A083170EEE20AACF1080CB5
:10C4E00021EE001A60EE800A82ED001AC2ED010A08
:10C4F00008325B1ECCD17047D1ED000A91ED011AD4
:10C50000D0F814C0008870EE811A70EEC10AB6EE41
:10C51000000A431E61EE801A60EE800A0CF10800EA
:10C52000C2ED001AC2ED010A01EBC30C01F10801D2
:10C5300002F1080208BF7047DCED010A9CED003AE9
:10C5400091ED002A91ED011A90ED004A72EE431A26
:10C55000D0ED013A71EE202A32EE032A64EE214A30
:10C5600063EEA11A71EE600A23EEA25A32EE642A3B
:10C5700064EE222A70EEA10A083032EE452A083114
:10C5800070EEE20AACF1080C22EE002A60EE800A9E
:10C5900082ED002AC2ED010A08325B1ECCD1704741
:10C5A0002DE9F0410446008A1D004FEA500016466E
:10C5B0000F4620800AD02046FFF79EFF2A463146CC
:10C5C0002046BDE8F041012300F08CBB01232A4640
:10C5D000204600F087FB324639462046BDE8F04150
:10C5E00036E700004A08002302800182B2F5807F0E
:10C5F00031D008DC102A4FD0202A45D0402A3BD029
:10C60000802A31D008E0B2F5007F1BD0B2F5806FF0
:10C610000FD0B2F5006F03D04FF0FF3318467047CC
:10C620004FF46E628281214A8260214A2149426030
:10C6300039E04FF4E16282811F4A82601F4A20493B
:10C64000426030E04FF4E07282811E4A82601E4AEE
:10C650001E49426027E04FF4DC7282811C4A8260EE
:10C660001C4A1D4942601EE0D02282811B4A826022
:10C670001B4A1C49426016E0382282811A4A8260B5
:10C680001A4A1B4942600EE030228281194A8260B8
:10C69000194A1A49426006E014228281184A8260CF
:10C6A000184A194942604161B8E70000B8E0010842
:10C6B00020890108F83D0208A8D201082069010874
:10C6C000F81D020828CF010820590108F80D0208BA
:10C6D000B8CB010820510108F805020818CA010862
:10C6E000204D0108F8010208A8C90108204B0108E3
:10C6F000F8FF010848C90108204A0108F8FE0108AE
:10C7000020C90108A049010878FE01082DE9F0417F
:10C7100006462DED028B8C460088736801EB800481
:10C720004508274601EB850004EB85025FEA950882
:10C730007DD000BFD1ED003AD4ED001A91ED012A71
:10C7400094ED013A73EEA16A91ED024A91ED031A5C
:10C75000D4ED022AD4ED035A90ED008A90ED017ACF
:10C7600090ED020A90ED036A92ED005AD2ED014A73
:10C77000D2ED027AD2ED030AC1ED006A72EE036ACD
:10C7800073EEE13A74EEC71AC1ED016A74EE226AE3
:10C7900074EE622A37EEC04AC1ED026A71EE256A74
:10C7A000C1ED036A72EE436A31EE652A38EE051A6E
:10C7B00035EE483A80ED001A37EE241A80ED011A62
:10C7C00030EE271A80ED021A36EE201A80ED031A99
:10C7D00030EEC61A93ED000AD3ED010A63EE804AEB
:10C7E00026EEA05A66EE805A63EEA03A74EE854AB1
:10C7F00075EEE33AC4ED004A63EE204AC4ED013A17
:10C8000061EE803A61EEA00A23EE000A74EEE31AAC
:10C8100030EE800AC2ED001A82ED010A93ED020AA1
:10C82000D3ED030A62EE803A22EE203A00E024E0E3
:10C8300062EEA01A22EE002A73EE832A1030103125
:10C8400072EE611AC4ED022A24EE202AC4ED031A06
:10C8500061EE001A61EE200A24EE000A103332EE77
:10C86000611A103430EE800A82ED021A82ED030A5A
:10C870001032B8F101087FF45DAF2946022360460B
:10C88000726800F0D5FA72682946BDEC028B384612
:10C89000BDE8F041022300F0CBBA2DE9F34F2DEDB6
:10C8A000048B87B00B980088470801EB870000EBEA
:10C8B000870606EB8705CDE90056DDF82C80A5F14B
:10C8C000040C0CEB8703CDE902014FEA5709D8F8B5
:10C8D00004800427CDE90497D1ED000A96ED000A03
:10C8E00090ED011A95ED013A70EE802A70EEC03A93
:10C8F000D1ED010A96ED010A041F321F30EE802AA5
:10C9000070EEC01A31EE230AD0ED000A32EE415A21
:10C9100033EEC11A30EE434A71EEE04A95ED000A5B
:10C9200070EEA11A35EE435A74EE805A72EEE04A68
:10C9300070EEA20A71EEC01A31EE031A74EEC04A0C
:10C9400030EE800A062708F1080A81ED000A90ED12
:10C95000010AD5ED010A08F1100B30EE020A08F1C8
:10C96000180830EE200A81ED010A80ED004AC0ED82
:10C97000015AC6ED004A86ED015A85ED001AC5ED53
:10C98000011ADDF810900830083108350836A9F191
:10C9900002095FEA590900F0078100BFD1ED000AE2
:10C9A00096ED000AD0ED011AD5ED014A30EE802A4D
:10C9B00030EEC05AD1ED010A96ED010A70EE802AE0
:10C9C00030EEC01A31EE850AD5ED000A30EE644A29
:10C9D00090ED000A31EE403A30EE011A73EE205A23
:10C9E00032EE403A30EE020A31EE601A73EE603AEF
:10C9F00030EE200A32EEE13A75EE611A81ED000A5E
:10CA000090ED010AD5ED010A33EE643A30EE220AC8
:10CA100071EEA41A30EE200A81ED010AD4ED002A4D
:10CA2000DCED004A54ED010A1CED010A32EEA47A55
:10CA300032EEE49A72EEE42A52ED018A70EE807AC8
:10CA400030EEC02A72EEE82AD2ED000A93ED000A19
:10CA500013ED018A30EEC05A72EE886A77EEE82A4A
:10CA600035EE026A32EEC85A77EE602A72EEC04A9C
:10CA700070EEC02A70EE870A72EEC22A30EE800A8B
:10CA800038EE682A84ED000A12ED010A53ED010A1E
:10CA900032EE492A30EE270A30EE200A04ED010A70
:10CAA0009AED000ADAED010A64EE007A25EEA07A2A
:10CAB00065EE805A24EE204A37EE877A35EEC44A76
:10CAC00080ED007A80ED014A26EEA04A66EE005A1B
:10CAD00066EE200A26EE800A083034EE654A0831F8
:10CAE00030EE800A82ED004A083C02ED010A9BED1F
:10CAF000000ADBED010ADDF814E023EE804A63EE64
:10CB0000205A23EE003A63EEA03A083A34EE254A62
:10CB10000BEB8E0B33EE633A86ED004A0AF1080AFE
:10CB200086ED013AB1EE643A083663EE003A25EE3E
:10CB3000203A25EE000A64EEA00A33EEC33A30EE46
:10CB4000C00A8CED003A0CED010A98ED000AD8ED10
:10CB5000010A08EB870861EE803A21EE203A21EEC7
:10CB6000001A61EEA01AACF1080C33EE833A31EEF4
:10CB7000611A85ED003A62EE801A85ED011A22EE07
:10CB8000201A62EEA00A22EE000A083531EE611A80
:10CB900030EE800A83ED001A03ED010A083BB9F17B
:10CBA00001097FF4FBAE00BFD1ED000A96ED000A4B
:10CBB00091ED011AD0ED015A30EE802A70EEC00AD4
:10CBC00096ED010A95ED015A042371EE001A71EEFB
:10CBD000404A35EEA00A90ED001A31EEE54A70EEBB
:10CBE000E50A30EE453A95ED000A34EE454A30EE5E
:10CBF000855A74EEC12A72EE413A71EE240A31EE82
:10CC0000021A72EE802A73EEC03A70EEC00A31EE5C
:10CC1000000A81ED000A90ED010A95ED011A30EE4F
:10CC2000210A30EE010A81ED010A9AED000A9AED1F
:10CC3000011A63EE001A22EE812A22EE800A23EE08
:10CC4000011A71EE821A30EE410AC0ED001A80ED31
:10CC5000010A9BED000A9BED011A63EE801A24EE97
:10CC6000012A24EE000A23EE811A71EE821A30EEB8
:10CC7000410AC6ED001A86ED010A98ED010A98ED09
:10CC8000001A60EE801A25EE012A60EE810A25EE78
:10CC9000000A32EE211A30EEC00A85ED001A85ED49
:10CCA000010A0B984268DDE9030100F0C1F80B9816
:10CCB000042304994268029800F0BAF80B98042300
:10CCC00004994268019800F0B3F80B980499042382
:10CCD0004268009807B0BDEC048B02B0BDE8F04F8D
:10CCE00000F0A6B82DE9F0410488984617460D4695
:10CCF0000646012A20D1281DF4B1A0F1080114F044
:10CD0000010F06D091ED020AB1EE400A81ED020A50
:10CD100008315FEA540C0FD091ED020AB1EE400ADF
:10CD200081ED020A91ED040AB1EE400A81ED040A98
:10CD30001031BCF1010CEFD1B4F5807F1BD008DCC1
:10CD4000102C13D0202C16D0402C19D0802C0DD0B4
:10CD50001CE0B4F5007F13D0B4F5806F06D0B4F5B5
:10CD6000006F08D0B4F5805F0AD00FE02946304646
:10CD7000FFF7CCFC0AE029463046FFF78EFD05E0C0
:10CD8000214601232846726800F052F8B8F1000FDE
:10CD900004D0B1892846B268FFF7FEF9012F18BF09
:10CDA000BDE8F08100EE104AB7EE001A002CF8EE54
:10CDB000400A81EE200A08BFBDE8F081A5F1080015
:10CDC00014F0010F0ED0D0ED020A60EE800AC0ED23
:10CDD000020AD0ED030AF1EE600A60EE800AC0EDAF
:10CDE000030A0830610808BFBDE8F081D0ED020AEF
:10CDF00060EE800AC0ED020AD0ED030AF1EE600A8F
:10CE000060EE800AC0ED030AD0ED040A60EE800AED
:10CE1000C0ED040AD0ED050AF1EE600A60EE800A6A
:10CE2000C0ED050A1030491EE0D1BDE8F0810000D8
:10CE30002DE9FF4F2DED108B82B09FEDFEFA0B46D2
:10CE40001C46DB084FF0000C0CEB030505EB030858
:10CE500008EB030909EB030606EB030A00EBCC071A
:10CE600000EBC60697ED001AD6ED000A0AEB030B9D
:10CE700000EBC50500EBCA0A31EE200A71EE601A1C
:10CE800095ED002ADAED000A0BEB030E00EBC80863
:10CE900032EE201A00EBCB0B32EE602AD8ED002ADE
:10CEA000DBED000A00EBC90900EBCE0E99ED003A6C
:10CEB0009EED004A72EEA03A72EEE02A73EE040A8A
:10CEC00033EE443A70EE636A70EE233A31EE600A54
:10CED00071EE200A33EEA01A73EEE00A87ED001A15
:10CEE000C6ED000A97ED011AD6ED010AD5ED013A1B
:10CEF00098ED014A31EE206A71EE600A9AED011A4E
:10CF000099ED015A73EE814A73EEC13A9BED011A15
:10CF100034EE017A34EE411A9EED014A75EE045A60
:10CF200035EE444A36EE475A36EE076A34EEE57A75
:10CF300074EEA54A76EE245A76EE644AC7ED015A9D
:10CF4000C6ED014A76EE874AC8ED004A76EEC74A3A
:10CF5000CBED004A75EE404A35EE000AC8ED014AB5
:10CF60008BED010A32EE430A32EE032A20EE0F0A5D
:10CF700062EE0F4A33EEC42AA4448C4522EE0F3AE7
:10CF800033EE842A30EEC34A62EE0F3A30EE833A33
:10CF900031EEC02A31EE800A71EE630A31EE231AB7
:10CFA00072EEE41A72EEA42A70EE013A30EE410AF3
:10CFB000C5ED003A8EED000A32EE200A8AED000A35
:10CFC00032EE600A89ED000A33EE620A85ED010A4D
:10CFD00033EE220A8EED010A34EE610A8AED010A6F
:10CFE00034EE210A89ED010AFFF42EAF082B3FBF72
:10CFF00002B0BDEC108B04B0BDE8F08F4FF0000C18
:10D00000CDF804C04FF0010CCDF800C0DDF804C02D
:10D01000159DAC444FEA8C0505EB0C07CDF804C018
:10D0200007EB0C094FEA4C0808EB0C0609EB0C0A5D
:10D0300002EBCC0C02EBC80802EBC60602EBC505FE
:10D0400002EBC70702EBC90902EBCA0A9CED00DA42
:10D050009CED018AD8ED00CA96ED00CAD5ED00BA64
:10D0600097ED00BAD9ED00AADAED008AD8ED017A81
:10D0700096ED01AA95ED017AD7ED016A99ED016A65
:10D08000DAED019ADDF800C00CEB0307FD1805EBA3
:10D09000030A0AEB030808EB030606EB030B00EB9D
:10D0A000CC0900EBC808D9ED000A98ED000A00EBA6
:10D0B000C70700EBC606D7ED001A96ED001A70EE12
:10D0C000803A0BEB030E70EEC00A31EE810A00EBE2
:10D0D000C50500EBCB0B31EEC11AD5ED001A9BED67
:10D0E000002A00EBCA0A00EBCE0E31EE824A71EE46
:10D0F000C21A9AED002ADEED002A32EE223A32EE12
:10D10000622A73EEC42A73EE843A30EE435A30EE4C
:10D11000030A33EE803A73EEC0DA89ED003A99EDF6
:10D12000010A98ED013AD7ED013A95ED014A70EE0A
:10D1300003EA30EE433A96ED010A9AED01EADEED9C
:10D14000014A33EE809A73EEC03A9BED010A74EE09
:10D15000005A34EE404A3EEE240A7EEE644A3EEE29
:10D16000E5EA7EEEA55A79EE40EA39EE009A32EE13
:10D17000AE0A72EEEE2A75EE89EA35EEC99A7EEEB7
:10D18000455AC9ED01EA3EEE055A2BEEADEA67EECF
:10D1900009EA2BEE899A67EE2DDA3EEE2EEA39EE99
:10D1A0006D9A88ED00EA67EEA5DA88ED019A2CEE1B
:10D1B000809A6CEEA55A27EE800A39EE2D9A35EE4C
:10D1C000C00A85ED009A66EE055A85ED010A2AEE41
:10D1D000A20A2AEE855A66EE222A30EE250A8BED47
:10D1E000000A35EE620A73EEA42A8BED010A31EED5
:10D1F000420A31EE021A33EEE42A62EE8F3A20EE52
:10D200000F0A21EE0F1A22EE0F2A70EEC02A30EE1E
:10D21000800A71EEC10A71EE811A33EE421A33EEC2
:10D22000022A34EE633A34EE234A70EE043A30EECA
:10D23000444A01E0F304353F72EE834A72EEC32A9A
:10D2400032EE613A32EE210A71EE601A71EE200A76
:10D250002DEE232A28EE031A2DEE033A68EE233A28
:10D26000A44432EE011A28EE842A8C4587ED001A78
:10D2700033EE631A29EE843A87ED011A29EE801AFB
:10D2800028EE800A32EE011A30EE430A26EEA42A76
:10D290008EED001A8EED010A2BEE240A26EEA11A5D
:10D2A0006BEE211A30EE010A2CEE221A86ED000AEE
:10D2B00031EEC20A6AEE221A86ED010A2AEE200A2F
:10D2C0006CEE200A31EE000A8AED000A30EEE10A27
:10D2D0008AED010AFFF4D8AEDDF800C00CF1010CB4
:10D2E000CDF800C063453FF691AEDDF854C04FF66F
:10D2F000FF7404EACC0CCDF854C0072B3FF6A0AD68
:10D3000002B0BDEC108B04B0BDE8F08F2DE9F05FEA
:10D310000546002092469B468846064681464024A4
:10D320001BE0284641464746224600F060F8534637
:10D330005A46C01A914110D311461846224600F0B1
:10D3400047F82D1A67EB01084F46224601200021BD
:10D3500000F03EF817EB00094E41201EA4F1010435
:10D36000DFDC484631462A464346BDE8F09F40EAA6
:10D3700001039B0703D009E008C9121F08C0042A53
:10D38000FAD203E011F8013B00F8013B521EF9D23A
:10D390007047D2B201E000F8012B491EFBD2704762
:10D3A0000022F6E710B513460A4604461946FFF771
:10D3B000F0FF204610BD30B504460020034600E0D3
:10D3C0005B1C934203D2E05CCD5C401BF8D030BDC7
:10D3D000202A04DB203A00FA02F100207047914035
:10D3E000C2F1200320FA03F3194390407047202A2A
:10D3F00004DB203A21FA02F00021704721FA02F3FF
:10D40000D040C2F120029140084319467047000005
:10D41000064C074D06E0E06840F0010394E8070081
:10D4200098471034AC42F6D3FEF71AFF047E020888
:10D43000247E020800F0BAF800BF4FF0FF3101204F
:10D4400005F026FD0548457805EB4500044901EB4C
:10D450004034204603F05CFCEFE7000000000020B1
:10D460001401002000487047D4A801200EB56A4678
:10D4700001A902A800F04AFC9DF80800FF2801D18C
:10D48000002002909DF8080007490870BDF80400CC
:10D490004FF6FF71884206D0BDF8040018B1BDF800
:10D4A0000400024908800EBD06000020080000208C
:10D4B00000BFFEE72DE9F0412DED048B04460D463B
:10D4C0000023224621463548FFF76AF86A082146BC
:10D4D0002046FEF73FFF00EE105AB8EE400AF0EE8D
:10D4E000000A80EE801AB0EE419AD4ED000A00EEF8
:10D4F000105AB8EE400A80EE801A84ED001A9FEDB3
:10D50000280AB0EE408A002601201CE004EB8001CE
:10D5100091ED000A20EE090A04EB800181ED000A7A
:10D5200005280FD904EB800191ED000AB4EEC80A7A
:10D53000F1EE10FA06DD04EB800191ED000AB0EE89
:10D54000408A0646401CB0EB550FDFD300EE105A60
:10D55000B8EE400ADFED130AC0EE808A00EE106AD2
:10D56000B8EE400A20EE280A0F4880ED040A80ED4C
:10D57000058A7700B7EB550F07D204EB870090EDD3
:10D58000000A094880ED060A04E09FED050A0648F6
:10D5900080ED060ABDEC048BBDE8F0815028012027
:10D5A000000000000000C846B068012010B54FF42C
:10D5B00080510248FFF716F810BD000050280120E6
:10D5C00070B52DED0C8B05460C4616469FED430AB3
:10D5D000F0EE40AA9FED410AB0EE40BA95ED000A88
:10D5E000F0EE40BA95ED000AB0EE40CA00201EE011
:10D5F00005EB8001D1ED000AB0EE600A7AEE800AF8
:10D60000F0EE60AAF0EE4B0A40EE000AB0EE60BA0F
:10D61000B4EEEB0AF1EE10FA01D2F0EE40BAB4EE3D
:10D62000CC0AF1EE10FA01DDB0EE40CA401CA04277
:10D63000DED300EE104AB8EE400ACAEE808A00EE51
:10D64000104AB8EE400ACBEE000AB0EE60DAB0EE57
:10D650004D0A04F062FBB0EE409A7CEE6BCA9FED7F
:10D660001F8A9FED1EAA002016E005EB800191EDB8
:10D67000001A31EE681AF0EE410A20EEA01AB0EE60
:10D68000410A38EE001AB0EE418AB0EE4A1A00EEB6
:10D69000001AB0EE41AA401CA042E6D39FED100A4A
:10D6A000B4EEC08AF1EE10FA02D2DFED0C9A09E076
:10D6B00000EE104AB8EE400A20EE0A0A68EE080AA8
:10D6C000C0EE209AC6ED008A86ED019AC6ED02CA28
:10D6D000C6ED039ABDEC0C8B70BD0000000000008D
:10D6E0005F70893070B50546104C04F8015B8720E7
:10D6F00004F8010B022004F8010B4F2004F8010B81
:10D700004B2004F8010B0948201A81B2074803F0A6
:10D71000BBFA064604F8016B301204F8010B03480B
:10D72000201A81B2014805F09DFB70BDED0000207C
:10D7300000BF4FF0FF31012005F0AAFB034802783B
:10D7400003480188034803F057FBF2E70600002076
:10D750000400002014C5002070B50546E81C05F043
:10D76000FFF9044604B970BDB4F5485F00DDFAE77F
:10D7700007480088844200D1F5E7204600F01EFBF0
:10D7800020B903480480008803F052F900BFEAE79B
:10D790000800002010B505F019FC4FF48042034941
:10D7A0000348FFF7E4FD05F03BFC10BDD468012001
:10D7B000D4A8012010B5024800F09CFB10BD000069
:10D7C0006CC9002010B5024800F094FB10BD0000A9
:10D7D00074CA002010B5024800F08CFB10BD000098
:10D7E000CCC9002010B5024800F084FB10BD000039
:10D7F000D4CA00200146087810381823B0FBF3F291
:10D800000848805CC865032A05D908686FF30900D9
:10D81000001D886503E008686FF309008865886D5E
:10D820007047000080490108014600208A6A8B6920
:10D83000CBB932B1012A0DD0022A03D0032A10D16C
:10D840000EE000BFCB6A03F08073B3F1807F00D19C
:10D85000012007E0CB6AB3F1C07F00D1012001E0D5
:10D8600000E000BF34E08B69B3F5005F1AD132B13C
:10D87000012A07D0022A03D0032A11D10AE000BFEF
:10D8800001200EE0CB6A03F08073B3F1807F00D1FA
:10D89000012006E0CB6AB3F1C07F00D1012000E097
:10D8A00000BF15E032B1012A05D0022A04D0032AB4
:10D8B0000CD103E000BF00BF012008E0CB6A03F0F9
:10D8C0008073B3F1807F00D1012000E000BF00BF72
:10D8D000704730B50468246824F4802405682C60FF
:10D8E000046863608468402C04D10468A260046802
:10D8F000E16003E00468A1600468E26030BD0000FC
:10D9000003F012F818B12148008803F091F84FF4A1
:10D9100040411F48FFF744FD002400BF4FF0FF3196
:10D92000012005F0B5FA1B48007800EB40001849CB
:10D9300001EB403504EB440005EB4005284603F0BD
:10D940005BF80A211448006806F01AFB01281AD176
:10D9500004F1400084B2B4F5805F16DB0D48007816
:10D960000C4948700846007808B9012000E0002002
:10D97000084908700024002302221946074800685D
:10D9800006F0B0FC01E002F095FFC7E708000020B8
:10D9900014010020000000201800002010000020CA
:10D9A000704710B5042000F075FD10BD10B50820BB
:10D9B00000F070FD10BD72B600BFFEE710B500228A
:10D9C00001B909E0012901D10A0205E0022901D1CA
:10D9D0000A0201E04FF440720E4B1B6823F44073BF
:10D9E0000C4C236023461B681343236023461B68AB
:10D9F00023F0F803236023461B68022444EAC00492
:10DA00002343044C236023461B6843F48033236084
:10DA100010BD0000103C02401C48006800F400707B
:10DA2000B0B11A48006820F400701849086000BFBF
:10DA30000846006840F4006008600846006820F46A
:10DA40000060086000BF0846006840F4007008608D
:10DA50000E48006800F48060B0B10C48006820F403
:10DA600080600A49086000BF0846006840F48050A2
:10DA700008600846006820F48050086000BF08462F
:10DA8000006840F48060086070470000003C02407D
:10DA90000A4A126822F44072084B1A601A46126849
:10DAA00042F004021A601A4612684FF4803343EAC7
:10DAB00000231A43014B1A6070470000103C0240DB
:10DAC000074A126822F44072054B1A601A4612681F
:10DAD0001A601A46126842F001021A60017070471B
:10DAE000103C024010B50A49096821F44071084C05
:10DAF00021602146096841F440712160214609688E
:10DB000041F0010121600260BFF36F8F436010BDDF
:10DB1000103C0240084A126822F44072064B1A6018
:10DB20001A46126842F480721A601A46126842F06D
:10DB300001021A6001807047103C0240084A1268D6
:10DB400022F44072064B1A601A46126842F40072C0
:10DB50001A601A46126842F001021A6001607047AA
:10DB6000103C02402A48006800F0100040B12948EB
:10DB7000C06940F010002749C8611020244908609E
:10DB80002348006800F0200040B12248C06940F0FE
:10DB900008002049C86120201D4908601C48006811
:10DBA00000F0400040B11B48C06940F00400194932
:10DBB000C8614020164908601548006800F08000E0
:10DBC00040B11448C06940F002001249C861802089
:10DBD0000F4908600E48006800F4807048B10D4895
:10DBE000C06940F001000B49C8614FF480700849DA
:10DBF00008600748006800F0020040B10548C069AD
:10DC000040F020000349C8610220014908607047C4
:10DC10000C3C02402000002070B504460025002086
:10DC20001449C86100F02EFD054609E0601C38B1BA
:10DC300024B100F027FD401BA04201D9032070BD94
:10DC40000D48006800F480300028EFD10A480068D1
:10DC500000F0010010B10120074908600648006883
:10DC600000F4F97018B1FFF77DFF0120E7E700200D
:10DC7000E5E70000200000200C3C0240F3200149B1
:10DC8000086070470C3C02402DE9F04387B0044621
:10DC9000002006901E21204604F072F8E08300F078
:10DCA000C5FB142101A8FFF77BFB00200190022097
:10DCB0000390012004900220059006A901A800F01D
:10DCC0000DFB05462DB100F05FFB284607B0BDE80F
:10DCD000F083A0460C4E4FF0080900270DE058F8DD
:10DCE00027C0624600233146022000F057FB05465C
:10DCF00005B104E0361D781CC7B24F45EFDB00BF0D
:10DD000000F042FB2846E1E70080000870B588B0CB
:10DD100006460C461546684600F00EF816B19DF80A
:10DD20000500307014B1BDF80600208015B1BDF8B3
:10DD30000800288008B070BD70B50446154D16491E
:10DD4000286888420ED11E21284604F019F806469C
:10DD5000E88BB04205D1202229462046FFF707FB79
:10DD600070BD00BFFF2220212046FFF712FB0A48AA
:10DD7000206002202071002060714FF44850E08044
:10DD80004FF4805020810020C4F80A00C4F80E002F
:10DD900000BFE5E7008000085A5AA5A530B589B054
:10DDA00004460D4601A8FFF7C7FFCDF80E40CDF899
:10DDB000125001A8FFF768FF09B030BD3EB5044618
:10DDC0006A4601A902A8FFF7A1FFBDF8002021467D
:10DDD0009DF8080000F001F83EBD70B588B004461B
:10DDE0000D4616466846FFF7A7FF8DF80540ADF8CB
:10DDF0000650ADF808606846FFF746FF08B070BDF2
:10DE00003EB504466A4601A902A8FFF77FFFBDF8A8
:10DE10000020BDF804102046FFF7DFFF3EBD70B5BF
:10DE20000446A56D00F02EFC064694F83500022845
:10DE300008D08020606500BF002084F8340000BF57
:10DE4000012070BD2068006820F01600216808607D
:10DE50002068406920F0800021684861206C08B982
:10DE6000A06C28B12068006820F0080021680860D4
:10DE70002068006820F001002168086010E000F0D0
:10DE800001FC801B05280BD920206065032084F845
:10DE9000350000BF002084F8340000BF0320D0E725
:10DEA0002068006800F001000028E8D194F85C10B8
:10DEB0003F208840A860012084F8350000BF002082
:10DEC00084F8340000BF00BFBBE7014691F835007D
:10DED000022803D08020486501207047052081F882
:10DEE00035000868006820F001000A681060002012
:10DEF000F3E70000F8B50446002000908C48006865
:10DF00004FF41651B0FBF1F7A56D2E6894F85C1034
:10DF100008208840304098B12068006800F0040074
:10DF200070B12068006820F004002168086094F84F
:10DF30005C1008208840A860606D40F001006065BA
:10DF400094F85C1001208840304068B12068406936
:10DF500000F0800040B194F85C1001208840A86077
:10DF6000606D40F00200606594F85C100420884009
:10DF7000304068B12068006800F0020040B194F8B9
:10DF80005C1004208840A860606D40F0040060656B
:10DF900094F85C1010208840304078B32068006806
:10DFA00000F0080050B394F85C1010208840A8607E
:10DFB0002068006800F4802080B12068006800F4C8
:10DFC000002028B9206CC8B12046216C884715E094
:10DFD000A06C98B12046A16C88470FE020680068CB
:10DFE00000F4807028B92068006820F008002168DB
:10DFF0000860206C10B12046216C884794F85C10B2
:10E00000202088403040002865D02068006800F05B
:10E01000100000285FD094F85C1020208840A86091
:10E0200094F83500052828D12068006820F01600F3
:10E03000216808602068406920F0800021684861FC
:10E04000206C08B9A06C28B12068006820F0080096
:10E050002168086094F85C103F208840A860012087
:10E0600084F8350000BF002084F8340000BF206D24
:10E0700010B12046216D8847F8BD2068006800F483
:10E08000802080B12068006800F4002028B9606C0E
:10E0900010B12046616C88471DE0E06BD8B1204686
:10E0A000E16B884717E02068006800F4807068B969
:10E0B0002068006820F0100021680860012084F8C2
:10E0C000350000BF002084F8340000BFE06B10B1C1
:10E0D0002046E16B8847606D38B3606D00F0010049
:10E0E000F0B1052084F835002068006820F00100B8
:10E0F0002168086000BF0098401C0090B84200D919
:10E1000005E02068006800F001000028F3D100BF9E
:10E11000012084F8350000BF002084F8340000BFDF
:10E12000E06C10B12046E16C884700BFA4E7000016
:10E130004C0000202DE9F0410446002500F0A2FA31
:10E14000074614B90120BDE8F081606A00B100BF44
:10E15000022084F8350000BF002084F8340000BF9E
:10E160002068006820F00100216808600AE000F0E3
:10E1700089FAC01B052805D920206065032084F892
:10E180003500E0E72068006800F001000028EED1CB
:10E190002068056821480540D4E901010843E16889
:10E1A00008432169084361690843A1690843E1699B
:10E1B0000843216A08430543606A042803D1D4E96F
:10E1C0000B0108430543206805602068456925F078
:10E1D0000705606A0543606A04280DD1A06A0543FB
:10E1E000E06A48B12046FFF71FFB28B14020606578
:10E1F000012084F83500A6E7206845612046FFF736
:10E20000F9FA064694F85C103F208840B060002080
:10E210006065012084F83500002094E73F8010F00D
:10E220002DE9F04704460D4616461F464FF00008FC
:10E23000D4F8589000BF94F83400012802D102208D
:10E24000BDE8F087012084F8340000BF94F8350061
:10E25000012825D1022084F83500002060653B4666
:10E26000324629462046FFF734FB94F85C103F20E5
:10E270008840C9F808002068006840F0160021684E
:10E280000860206C28B12068006840F00800216810
:10E2900008602068006840F001002168086006E01E
:10E2A00000BF002084F8340000BF4FF00208404651
:10E2B000C6E7000070B5044600F0E4F906462546BE
:10E2C000681C10B104480078054400BF00F0DAF97A
:10E2D000801BA842FAD370BD480000202DE9F04110
:10E2E00004460F46002600BF2548007E012802D1C3
:10E2F0000220BDE8F08101202149087600BF4CF2E0
:10E300005030FFF789FC0546002D31D1401E3860A2
:10E31000206801280FD1207C6168FFF7B9FB4CF21F
:10E320005030FFF779FC05461648006820F00400DD
:10E33000144908601AE0A66812E0217C3046FFF715
:10E340003DFB4CF25030FFF767FC05460D48006876
:10E3500020F0FA000B4908600DB13E6005E0761C24
:10E36000D4E902100844B042E7D800BFFFF754FBDD
:10E3700000BF00200249087600BF2846B9E7000028
:10E3800020000020103C02400348006840F000409C
:10E390000149086000207047103C02402DE9F0411F
:10E3A0000646884614461D4600BF1E48007E0128CA
:10E3B00002D10220BDE8F08101201A49087600BF91
:10E3C0004CF25030FFF728FC07461FBB26B9E1B2DC
:10E3D0004046FFF775FB12E0012E04D1A1B2404682
:10E3E000FFF798FB0BE0022E04D121464046FFF7D1
:10E3F000A5FB04E022462B464046FFF773FB4CF298
:10E400005030FFF709FC07460748006820F001007C
:10E410000549086000BF00200249087600BF384661
:10E42000C8E7000020000020103C024000200949FD
:10E43000096801F0004159B10749064A0C3A1160D8
:10E44000064911600349096801F0004101B101204A
:10E4500070470000103C024023016745AB89EFCDB7
:10E4600038B50446082C10D10020009069460748B2
:10E47000006804F075FF009830B160060449086038
:10E48000BFF34F8FBFF36F8F00BF38BD0C0000206C
:10E4900004ED00E010B5044604480068204020B1B7
:10E4A000024804602046FFF7DBFF10BD143C01402A
:10E4B000F8B502460B460025002400200021C7E0E5
:10E4C000012606FA01F51E6806EA0504AC4274D17D
:10E4D0001E7906F00306012E04D01E7906F003060D
:10E4E000022E13D190684F000326BE40B0434F0068
:10E4F000DE68BE4030439060506801268E40B043D5
:10E500001E79C6F300168E40304350601E7906F027
:10E510000306032E09D0D0684F000326BE40B04347
:10E520004F009E68BE403043D0601E7906F003065F
:10E53000022E13D1CF0802F1200656F827004E070D
:10E54000F70E0F26BE40B0434F07FF0E1E69BE40B8
:10E550003043CF0802F1200646F8270010684F002C
:10E560000326BE40B0431E7906F003064F00BE40AE
:10E57000304310605E6806F44036002E67D000BF5E
:10E5800000260096344E366846F48046324F3E6090
:10E590003E46366806F48046009600BF00BF2F4E08
:10E5A0008F0856F827008E07370F0F26BE40B0435E
:10E5B0002B4EB24202D1002615E048E0294EB2426D
:10E5C00001D101260FE0284EB24201D102260AE015
:10E5D000264EB24201D1032605E0254EB24201D1BA
:10E5E000042600E007268F073F0FBE4030431B4E36
:10E5F0008F0846F827001F4E3068A0435E6806F477
:10E60000801606B120431B4E3060361D3068A04393
:10E610005E6806F4001606B12043164E361D3060C3
:10E62000144E361F3068A0435E6806F4003606B10B
:10E630002043104E361F3060361F3068A0435E689E
:10E6400006F4803606B120430A4E083E3060491C6D
:10E650001029FFF435AFF8BD4438024008380140B6
:10E66000000002400004024000080240000C02408A
:10E6700000100240083C01400AB1816101E00B0436
:10E680008361704701480068704700004000002027
:10E690000148006870470000107AFF1F01480068B9
:10E6A00070470000147AFF1F01480068704700009F
:10E6B000187AFF1F03480068034909780844014994
:10E6C00008607047400000204800002010B50D4849
:10E6D000006840F400700B4908600846006840F488
:10E6E000806008600846006840F48070086003207D
:10E6F00000F0ECF80F2000F007F800F055F80020CB
:10E7000010BD0000003C0240F0B587B00446002672
:10E71000002700BF002000901E48006840F0010064
:10E720001C4908600846006800F00100009000BF26
:10E7300000BF01A902A800F0B5F900F0EBF9064608
:10E740001548B6FBF0F0471E14481549086040F222
:10E75000E7311348C1604760002101618160816138
:10E7600001F05AFA054695B90D4801F089FA0546B7
:10E770006DB9192000F058F8102C07D2002221465C
:10E78000192000F065F80748046000E001252846DC
:10E7900007B0F0BD4438024040420F000000014085
:10E7A00034CB00204400002008B500BF00200090BA
:10E7B0001148006840F480400F490860084600682E
:10E7C00000F48040009000BF00BF00BF0020009018
:10E7D000081F006840F08050091F08600846006864
:10E7E00000F08050009000BF00BF00220F21901E5B
:10E7F00000F02EF808BD00004438024010B5014674
:10E80000084600280BDB00F01F0301229A40054B4D
:10E81000440943F82420BFF34F8FBFF36F8F00BF2D
:10E8200010BD000080E100E00146084600280DDB35
:10E8300000BF00BF00F01F0301229A4043099B0064
:10E8400003F1E023C3F8002100BF00BF00BF704701
:10E850002DE9F05F80460D461646002703F03EFA8C
:10E86000074639462A46334601F00700C0F1070A39
:10E87000BAF1040F02D94FF0040A01E0C0F1070A0F
:10E88000D14600F1040ABAF1070F02D24FF0000A94
:10E8900001E0A0F1030AD4464FF0010A0AFA09FA8E
:10E8A000AAF1010A0AEA020A0AFA0CFA4FF0010B6D
:10E8B0000BFA0CFBABF1010B0BEA030B4AEA0B045E
:10E8C0002146404603F012FABDE8F09F00BF00F079
:10E8D0000702064B19684FF6FF031940044B0B4320
:10E8E00043EA0221014B196000BF70470CED00E0C4
:10E8F0000000FA0500BFBFF34F8F0748006800F41F
:10E90000E06006490843001D03490860BFF34F8FCC
:10E9100000BF00BF00BFFDE70CED00E00000FA05FE
:10E9200070B504460D460CB9012070BD584800680A
:10E9300000F00700A84209D255490D70084600684A
:10E9400000F00700A84201D00120EEE7207800F097
:10E95000020002281DD1207800F00400042805D10F
:10E960004C48006840F4E0504A490860207800F0C4
:10E970000800082805D14748006840F46040454930
:10E9800008604448006820F0F000A168084341494D
:10E990000860207800F00100A8B36068012807D162
:10E9A0003C4808380068C0F34040B8B90120BCE7D3
:10E9B0006068022802D06068032807D1354808380B
:10E9C0000068C0F3406048B90120AEE7314808381C
:10E9D0000068C0F3400008B90120A6E72D48006890
:10E9E00020F00300616808432A490860FFF74AFEE7
:10E9F000064609E0FFF746FE801B41F28831884257
:10EA000002D9032091E707E02248006800F00C00DB
:10EA10006168B0EB810FEDD11D48006800F0070080
:10EA2000A84209D91A490D700846006800F007008D
:10EA3000A84201D0012078E7207800F004000428E3
:10EA400007D11448006820F4E050E16808431149F8
:10EA50000860207800F00800082808D10D480068F8
:10EA600020F46040216940EAC1000A49086000F0D2
:10EA700061F808490968C1F30311074A515CC840AD
:10EA80000649086006480068FFF73EFE00204CE794
:10EA9000003C024008380240884901084C00002030
:10EAA000440000200F2202600D4A126802F00302A7
:10EAB00042600B4A126802F0F0028260084A126853
:10EAC00002F4E052C260064A126802F46042D208C0
:10EAD0000261044A126802F007020A6070470000EF
:10EAE00008380240003C02400148006870470000BE
:10EAF0004C00002000B5FFF7F7FF04490968C1F397
:10EB00008221034A515CC84000BD00000838024021
:10EB10009849010800B5FFF7E7FF04490968C1F308
:10EB20004231034A515CC84000BD00000838024031
:10EB3000984901082DE9F047002400250026A14648
:10EB40002548006800F00C0020B1042805D00828F2
:10EB50003AD105E0DFF8849039E0DFF8849036E0C0
:10EB60001D48001F006800F03F041B48001F00689C
:10EB700000F4800078B11A481749091F0968C1F3E9
:10EB80008811A0FB01700146224600233846FEF79B
:10EB9000BDFB05460EE011480F49091F0968C1F386
:10EBA0008811A0FB01700146224600233846FEF77B
:10EBB000ADFB05460848001F0068C0F30140401C3B
:10EBC0004600B5FBF6F902E0DFF8109000BF00BF89
:10EBD0004846BDE8F0870000083802400024F400F1
:10EBE00040787D01F8B504460CB90120F8BD2078C5
:10EBF00000F00100002874D0F948006800F00C0013
:10EC000004280DD0F648006800F00C00082813D145
:10EC1000F348001F006800F48000B0F5800F0BD1AE
:10EC2000EF4808380068C0F34040002859D06068B9
:10EC3000002856D10120D9E700BF6068B0F5803FB9
:10EC400008D1E7480838006840F48030E4490839C2
:10EC500008601EE06068B0F5A02F0DD1E0480838CC
:10EC6000006840F48020DE490839086008460068E2
:10EC700040F4803008600CE0D9480838006820F47F
:10EC80008030D749083908600846006820F48020A1
:10EC9000086000BF606890B1FFF7F4FC054606E02D
:10ECA000FFF7F0FC401B642801D903209EE7CC4805
:10ECB00008380068C0F340400028F1D011E0FFF7A9
:10ECC000E1FC054606E0FFF7DDFC401B642801D9A6
:10ECD00003208BE7C24808380068C0F34040002892
:10ECE000F1D1207800F0020002285FD1BC48006812
:10ECF00000F00C0058B1BA48006800F00C00082879
:10ED00001CD1B748001F006800F48000B0B9B448B7
:10ED100008380068C0F3400020B1E068012801D045
:10ED2000012063E7AE480838006820F0F800216948
:10ED300040EAC100AA490839086037E0E06800B33A
:10ED40000120A8490860FFF79DFC054606E0FFF793
:10ED500099FC401B022801D9032047E7A048083846
:10ED60000068C0F340000028F1D09D4808380068D2
:10ED700020F0F800216940EAC1009949083908608B
:10ED800014E0002097490860FFF77CFC054606E088
:10ED9000FFF778FC401B022801D9032026E79048A2
:10EDA00008380068C0F340000028F1D1207800F056
:10EDB000080008282CD16069A8B101208A490860A0
:10EDC000FFF760FC054606E0FFF75CFC401B0228ED
:10EDD00001D903200AE782486C300068C0F3400084
:10EDE0000028F1D014E000207F490860FFF74AFCBA
:10EDF000054606E0FFF746FC401B022801D9032028
:10EE0000F4E677486C300068C0F340000028F1D188
:10EE1000207800F00400042870D1002770483830B2
:10EE2000006800F0805090B900BF002000906C484E
:10EE30003830006840F08050694938310860084631
:10EE4000006800F08050009000BF00BF01276748B5
:10EE5000006800F48070B0B96448006840F48070C5
:10EE600062490860FFF70EFC054606E0FFF70AFC62
:10EE7000401B022801D90320B8E65C48006800F472
:10EE800080700028F2D000BFA068012808D1544843
:10EE90006830006840F001005149683108601DE0A9
:10EEA000A06805280DD14E486830006840F0040085
:10EEB0004B49683108600846006840F0010008606E
:10EEC0000CE047486830006820F001004449683190
:10EED00008600846006820F00400086000BFA068D1
:10EEE000A8B1FFF7CFFB054609E0FFF7CBFB401BBE
:10EEF00041F28831884202D9032077E626E038487B
:10EF000068300068C0F340000028EED013E0FFF73F
:10EF1000B9FB054608E0FFF7B5FB401B41F288311D
:10EF2000884201D9032061E62D4868300068C0F3AB
:10EF300040000028EFD1012F07D129483830006860
:10EF400020F0805026493831086000BFA0690028B1
:10EF500045D02348006800F00C0008285DD0A06967
:10EF6000022845D100201F490866FFF78BFB0546A4
:10EF700006E0FFF787FB401B022801D9032035E696
:10EF8000174808380068C0F340600028F1D1D4E980
:10EF900007010843616A40EA81110122A06AC2EBBD
:10EFA000500041EA00412C20005D41EA00600C491C
:10EFB000091F086001200B490866FFF763FB05463F
:10EFC00006E0FFF75FFB401B022801D903200DE696
:10EFD000034808380068C0F340600028F1D049E0D9
:10EFE0000838024000004742800E4742007000404F
:10EFF000002021490866FFF745FB054606E0FFF7BC
:10F0000041FB401B022801D90320EFE51B480068A3
:10F01000C0F340600028F2D12CE0A069012800D1A3
:10F02000E4E51648001D0668A069012820D006F412
:10F030008001E06981421BD106F03F01206A8142D4
:10F0400016D147F6C0703040616AB0EB811F0FD116
:10F0500006F440310122A06AC2EB5000B1EB004F30
:10F0600006D106F070612C20005DB1EB006F01D07D
:10F070000120BBE50020B9E500004742003802400E
:10F0800070470000F8B50446206846682068856827
:10F09000C5F3801048B905F0010030B1C6F3801007
:10F0A00018B12046216C8847F8BDC5F3400030B147
:10F0B000C6F3C01018B12046616C8847F4E7C5F369
:10F0C000401030B9C5F3801018B9C5F300200028EE
:10F0D0007CD0C6F3401000287DD0C5F38010F0B17D
:10F0E00094F8510003280ED0606D40F00400606574
:10F0F00000BF002000902068C068009020688068F1
:10F10000009000BF0BE000BF002000902068C068A6
:10F11000009020688068009000BF00BFC4E7C5F37E
:10F12000401088B1606D40F00100606500BF0020B4
:10F1300000902068806800902068006820F04000FF
:10F140002168086000BF00BFC5F3002058B1606DA2
:10F1500040F00800606500BF0020009020688068D3
:10F16000009000BF00BF606D78B32068406820F059
:10F17000E00021684860012084F8510006F0020098
:10F18000022802D006F0010008B32068406820F091
:10F19000030021684860E06C50B11048E16C0865DC
:10F1A000E06CFEF792FE18B1606D40F040006065C3
:10F1B000A06C50B10948A16C0865A06CFEF785FEF3
:10F1C00018B1606D40F04000606503E003E0204648
:10F1D000FFF756FF68E700BF66E70000050F01086C
:10F1E00010B504460CB9012010BD606A38B96068DA
:10F1F000B0F5827F00D105E00021E16102E000214D
:10F20000216161610021A16294F8510028B90020B8
:10F2100084F85000204600F047F8022084F851009E
:10F220002068006820F0400021680860A08800F491
:10F230008270218901F404410843A18901F400612D
:10F240000843217C01F002010843217D01F0010106
:10F250000843218B01F400710843217F01F038013C
:10F2600008432021095D01F080010843218D01F44C
:10F2700000510843216808600421A06901EA104098
:10F2800094F8241001F010010843216848602068B8
:10F29000C06920F400602168C86100206065012019
:10F2A00084F8510000209FE710B586B00446142171
:10F2B00001A8FEF775F83D492068884273D100BF68
:10F2C000002000903A48006840F4805038490860B7
:10F2D0000846006800F48050009000BF00BF00BFE7
:10F2E0000020009032481438006840F00100304996
:10F2F000143908600846006800F00100009000BF63
:10F3000000BFE02001900220029000200390032023
:10F3100004900520059001A92648FFF7C9F8264862
:10F32000264908604FF0C060486000212348816092
:10F33000C1604FF480610161002141618161C1615F
:10F3400001624162FEF7F6FE08B1FEF734FB00BF32
:10F350001A48E064846300BF1748483018490860C1
:10F360004FF0C06048604021154881600021C160B5
:10F370004FF480610161002141618161C1610162DD
:10F380004162FEF7D7FE08B1FEF715FB00BF0C483F
:10F39000A064846300BF002206212320FFF758FAEF
:10F3A0002320FFF741FA06B010BD000000300140F5
:10F3B0004438024000000240106402406CC9002042
:10F3C000CCC900202DE9F8430446884616461D4660
:10F3D00094F85100012802D00220BDE8F883B8F16A
:10F3E000000F00D00EB90120F7E76068B0F5827F0A
:10F3F0000CD1A06850B9042084F85100334642462D
:10F4000041462046009500F02DFAE6E7FFF73AF96D
:10F41000074600BF94F85000012801D10220DCE724
:10F42000012084F8500000BF042084F8510000201F
:10F430006065C4F83880A687E6872063A086E086EA
:10F4400020646064A068B0F5004F0BD120680068AC
:10F4500020F04000216808602068006820F48040A7
:10F46000216808602068006800F04000402805D04E
:10F470002068006840F0400021680860E06830BB08
:10F4800021E02068806800F0010050B12068007B16
:10F49000A16B0870A06B401CA063E08F401EE0874A
:10F4A00011E0FFF7EFF8C01BA84201D3681C00B9B8
:10F4B0004DB9012084F8510000BF002084F85000AD
:10F4C00000BF032089E7E08F0028DAD125E021E0A2
:10F4D0002068806800F0010050B12068C068A16B0E
:10F4E0000880A06B801CA063E08F401EE08711E0C5
:10F4F000FFF7C8F8C01BA84201D3681C00B94DB97A
:10F50000012084F8510000BF002084F8500000BFA3
:10F51000032062E7E08F0028DAD13A4629462046E8
:10F5200001F08EFD08B120206065012084F85100B3
:10F5300000BF002084F8500000BF606D08B10120BA
:10F540004BE7002049E700002DE9F04104460E4654
:10F55000154694F85100012802D00220BDE8F08140
:10F5600006B10DB90120F9E7A06868B96068B0F587
:10F57000827F09D1042084F851002B46324631465F
:10F58000204600F093FAE9E700BF94F85000012804
:10F5900001D10220E2E7012084F8500000BF0420DE
:10F5A00084F8510000206065A663A587E587206484
:10F5B0006064A086E086A068B0F5004F0BD120689B
:10F5C000006820F04000216808602068006820F48E
:10F5D0008040216808601F48E16C08641E48E16CA7
:10F5E000C8631E48E16CC8640020E16C0865E38FC5
:10F5F000276807F10C01A26BE06CFEF711FE50B119
:10F60000606D40F01000606500BF002084F850007D
:10F6100000BF0120A2E72068006800F040004028F9
:10F6200005D02068006840F040002168086000BFF5
:10F63000002084F8500000BF2068406840F020009F
:10F64000216848602068406840F0010021684860F7
:10F65000002083E7410F01085D0F0108190F010821
:10F6600038B504460C492068884213D101F022F9CC
:10F670000020009069460948006804F05DFB00988E
:10F6800038B14FF0805006490860BFF34F8FBFF389
:10F690006F8F00BF38BD000000300140180000200F
:10F6A00004ED00E070472DE9F84304460F46164686
:10F6B0001D46FEF7E7FF8046B14694F85100012849
:10F6C00002D00220BDE8F88307B10EB90120F9E7A6
:10F6D00000BF94F85000012801D10220F2E7012078
:10F6E00084F8500000BF032084F8510000206065BA
:10F6F0002763A686E686A063A087E087606420640F
:10F70000A068B0F5004F0BD12068006820F04000E1
:10F71000216808602068006840F480402168086023
:10F720002068006800F04000402805D0206800688C
:10F7300040F0400021680860E068B0F5006F37D104
:10F74000606810B1B9F1010F09D1206B0088216800
:10F75000C860206B801C2063E08E401EE08623E0A2
:10F760002068806800F0020002280AD1206B00881F
:10F770002168C860206B801C2063E08E401EE086FC
:10F7800012E0FEF77FFFA0EB0800A84201D3681C3F
:10F7900000B94DB9012084F8510000BF002084F861
:10F7A000500000BF03208DE7E08E0028D8D136E05E
:10F7B000606810B1B9F1010F09D1206B00782168A0
:10F7C0000873206B401C2063E08E401EE08623E01F
:10F7D0002068806800F0020002280AD1206B0078BF
:10F7E00021680873206B401C2063E08E401EE08679
:10F7F00012E0FEF747FFA0EB0800A84201D3681C07
:10F8000000B94DB9012084F8510000BF002084F8F0
:10F81000500000BF032055E7E08E0028D8D14246B3
:10F820002946204601F056FC08B120206065A068FA
:10F8300050B900BF002000902068C0680090206888
:10F840008068009000BF00BF012084F8510000BF15
:10F85000002084F8500000BF606D08B1012031E73E
:10F8600000202FE72DE9FE4F04460F4690461D4627
:10F870000C9E01200190FEF705FF814694F851B0DF
:10F8800060680290AA46BBF1010F0BD00298B0F558
:10F89000827F04D1A06810B9BBF1040F02D002200E
:10F8A000BDE8FE8F1FB1B8F1000F00D00DB90120E7
:10F8B000F6E700BF94F85000012801D10220EFE7DD
:10F8C000012084F8500000BF94F85100042802D0B1
:10F8D000052084F8510000206065C4F83880E58771
:10F8E000A5872763E586A586206460642068006894
:10F8F00000F04000402805D02068006840F040003B
:10F9000021680860E068B0F5006F52D1606810B1FE
:10F91000BAF1010F09D1206B00882168C860206B03
:10F92000801C2063E08E401EE0863BE020688068FB
:10F9300000F00200022810D1E08E70B10198012879
:10F940000BD1206B00882168C860206B801C20636D
:10F95000E08E401EE086002001902068806800F064
:10F96000010068B1E08F58B12068C068A16B0880C1
:10F97000A06B801CA063E08F401EE08701200190F7
:10F98000FEF780FEA0EB0900B0420BD3701C48B11B
:10F99000012084F8510000BF002084F8500000BF0F
:10F9A00003207DE7E08E0028C0D1E08F0028BDD184
:10F9B00052E0606810B1BAF1010F09D1206B0078F4
:10F9C00021680873206B401C2063E08E401EE08697
:10F9D0003CE02068806800F00200022810D1E08E30
:10F9E00070B1019801280BD1206B00782168087351
:10F9F000206B401C2063E08E401EE08600200190BA
:10FA00002068806800F0010068B1E08F58B120687C
:10FA1000C068A16B0870A06B401CA063E08F401E03
:10FA2000E08701200190FEF72DFEA0EB0900B04217
:10FA300001D3701C00B94EB9012084F8510000BFF9
:10FA4000002084F8500000BF032029E7E08E002842
:10FA5000BFD1E08F0028BCD14A463146204601F094
:10FA600039FB40B12020606500BF002084F85000C1
:10FA700000BF012014E7A06850B900BF002000902B
:10FA80002068C068009020688068009000BF00BFB8
:10FA9000012084F8510000BF002084F8500000BF0E
:10FAA000606D08B10120FBE60020F9E62DE9F04782
:10FAB00004460E4617461D4694F85180D4F804902B
:10FAC000B8F1010F0AD0B9F5827F04D1A06810B94E
:10FAD000B8F1040F02D00220BDE8F0870EB107B1E3
:10FAE0000DB90120F8E700BF94F85000012801D1BA
:10FAF0000220F1E7012084F8500000BF94F8510083
:10FB0000042802D0052084F8510000206065266397
:10FB1000A586E586A763A587E5872064606494F8D9
:10FB20005100042806D13548E16C08643448E16C82
:10FB3000C86305E03348E16C08643348E16CC8638E
:10FB40003248E16CC8640020E16C0865E38FD4F8AA
:10FB500000C00CF10C01A26BE06CFEF761FB50B130
:10FB6000606D40F01000606500BF002084F8500018
:10FB700000BF0120B0E72068406840F00100216824
:10FB800048600020A16C0864A16CC863A16CC864C3
:10FB9000A16C0865E38ED4F800C00CF10C02216B57
:10FBA000A06CFEF73DFB50B1606D40F01000606549
:10FBB00000BF002084F8500000BF01208CE72068BF
:10FBC000006800F04000402805D02068006840F040
:10FBD00040002168086000BF002084F8500000BF8A
:10FBE0002068406840F02000216848602068406834
:10FBF00040F002002168486000206DE7410F0108D5
:10FC00005D0F01084F0F0108D90F0108190F0108F6
:10FC1000704770477047704710B504460CB9012013
:10FC200010BD94F83D0028B9002084F83C0020461F
:10FC300000F025F8022084F83D00211D206801F025
:10FC4000C1FB012084F8460000BF84F83E0001217A
:10FC50003F200155402001554120015500BF00BF04
:10FC6000012084F8420043200155442001554520DD
:10FC7000015500BF012084F83D000020D0E7704707
:10FC8000014691F83D00012801D001207047022073
:10FC900081F83D000868C06840F001000B68D8603A
:10FCA000164B0868984213D00868B0F1804F0FD007
:10FCB000134B086898420BD0124B0868984207D043
:10FCC000114B0868984203D0104B086898420CD139
:10FCD0000868806800F00702062A0CD008680068EF
:10FCE00040F001000B68186005E00868006840F00B
:10FCF00001000B6818600020C8E700000000014008
:10FD00000004004000080040000C0040004001409A
:10FD1000704770B504462068C5682068066906F01B
:10FD20000200022819D105F00200022815D1401F57
:10FD300021680861012020772068806900F00300B5
:10FD400018B12046FFF7E4FF05E0204600F097F8E1
:10FD5000204600F095F80020207706F004000428E3
:10FD600019D105F00400042815D1C04321680861A9
:10FD7000022020772068806900F4407018B1204686
:10FD8000FFF7C6FF05E0204600F079F8204600F0B6
:10FD900077F80020207706F00800082819D105F030
:10FDA0000800082815D1C043216808610420207785
:10FDB0002068C06900F0030018B12046FFF7A8FFD3
:10FDC00005E0204600F05BF8204600F059F80020DE
:10FDD000207706F01000102819D105F01000102827
:10FDE00015D1C04321680861082020772068C069C8
:10FDF00000F4407018B12046FFF78AFF05E0204666
:10FE000000F03DF8204600F03BF80020207706F097
:10FE1000010048B105F0010030B16FF00100216828
:10FE20000861204600F02EF806F08000802809D1F5
:10FE300005F08000802805D1C04321680861204674
:10FE4000FFF7E8FE06F04000402809D105F0400029
:10FE5000402805D1C04321680861204600F01EF803
:10FE600006F02000202809D105F02000202805D127
:10FE7000C043216808612046FFF7CDFE70BD704782
:10FE80007047000010B5044603492068884201D13C
:10FE9000FEF710FC10BD00000000014070477047E5
:10FEA00070B50446002520684069C0F3C01594F879
:10FEB0004100212817D1B5B100BF00BF216814311E
:10FEC00051E8001F21F080002168143141E8000250
:10FED000002AF3D100BFA06B10B1A06BFDF79FFF0C
:10FEE000204601F0DBFB20684069C0F3801594F8E0
:10FEF0004200222817D1B5B100BF00BF21681431DC
:10FF000051E8001F21F040002168143141E800024F
:10FF1000002AF3D100BFE06B10B1E06BFDF77FFF6B
:10FF2000204601F075FB002070BD70472DE9F84FA9
:10FF30000446206805682068C668206847694FF055
:10FF40000009CA4605F00F09B9F1000F0AD105F002
:10FF5000200038B106F0200020B1204601F0B1FBAE
:10FF6000BDE8F88FB9F1000F7CD007F0010018B997
:10FF700006F49070002875D005F0010030B106F449
:10FF8000807018B1606C40F00100606405F00400FE
:10FF900030B107F0010018B1606C40F002006064FD
:10FFA00005F0020030B107F0010018B1606C40F0BC
:10FFB0000400606405F0080048B106F0200010B9A4
:10FFC00007F0010018B1606C40F008006064606CDC
:10FFD000002846D005F0200028B106F0200010B11E
:10FFE000204601F06EFB20684069C0F3801A606C07
:10FFF00000F0080010B9BAF1000F2DD0204601F032
:020000040801F1
:1000000007FB2068406900F04000402820D100BF75
:1000100000BF2168143151E8001F21F04000216821
:10002000143141E80002002AF3D100BFE06B50B167
:100030007F48E16B0865E06BFDF747FF88B1E06B37
:10004000016D88470DE02046FFF76FFF09E009E0EA
:100050002046FFF76AFF04E02046FFF766FF002016
:1000600060647DE7206B012878D105F0100000283E
:1000700074D006F010000028FAD000BF00200090D5
:1000800020680068009020684068009000BF00BFB2
:100090002068406900F04000402870D1E06B0068A3
:1000A00040681FFA80F8B8F1000F58D0A08D404585
:1000B00055DDA4F82E80E06BC069B0F5807F43D099
:1000C00000BF00BF21680C3151E8001F21F480708F
:1000D00021680C3141E80002002AF3D100BF00BFC3
:1000E00000BF2168143151E8001F21F00100216890
:1000F000143141E80002002AF3D100BF00BF00BF65
:100100002168143151E8001F21F0400021681431AA
:1001100041E80002002AF3D100BF202084F8420009
:100120000020206300BF00BF21680C3151E8001F90
:1001300021F0100021680C3141E80002002AF3D1BF
:1001400000BFE06BFDF76BFE02206063A08DE28DC7
:10015000801A81B22046FFF7A2FE0EE052E0A08D89
:1001600040450AD1E06BC069B0F5807F05D102201F
:100170006063A18D2046FFF792FEF1E6FFE7A08DB8
:10018000E18D401A1FFA80F8E08DD0B3B8F1000F6E
:1001900037D000BF00BF21680C3151E8001F21F4A7
:1001A000907021680C3141E80002002AF3D100BFB1
:1001B00000BF00BF2168143151E8001F21F0010089
:1001C0002168143141E80002002AF3D100BF202049
:1001D00084F842000020206300BF00BF21680C317A
:1001E00051E8001F21F0100021680C3141E80002A5
:1001F000002AF3D100BF0220606341462046FFF78A
:100200004EFEADE605F0800030B106F0800018B17A
:10021000204601F057FCA3E605F0400030B106F09F
:10022000400018B1204601F029FA99E600BF97E690
:100230007114010810B504460CB9012010BDA06965
:1002400000B100E000BF94F8410028B9002084F814
:100250004000204600F02AF8242084F8410020685D
:10026000C06820F400502168C860204601F0A8FA58
:100270002068006920F49040216808612068406986
:1002800020F02A00216848612068C06840F40050CE
:100290002168C86000206064202084F8410084F850
:1002A00042000020606300BFC8E7000010B586B0C0
:1002B0000446142101A8FDF773F83F4920688842DD
:1002C00077D100BF002000903C48006840F010004B
:1002D0003A4908600846006800F01000009000BF2E
:1002E00000BF00BF0020009034481438006840F080
:1002F00001003249143908600846006800F0010026
:10030000009000BF00BF4FF4C06001900220029037
:1003100000200390032004900720059001A928489D
:10032000FEF7C6F82748284908604FF0006048608B
:10033000002125488160C1604FF480610161002186
:10034000416181614FF48071C161002101624162AC
:10035000FDF7F0FE08B1FDF72EFB00BF1A48E06381
:10036000846300BF17487830184908604FF0006078
:1003700048604021154881600021C1604FF48061D0
:100380000161002141618161C16101624162FDF74A
:10039000D1FE08B1FDF70FFB00BF0C48A0638463DA
:1003A00000BF002206212520FEF752FA2520FEF785
:1003B0003BFA06B010BD0000001001404438024076
:1003C000000002404064024074CA0020D4CA0020E9
:1003D00070B504460D46164694F8420020280BD10D
:1003E00005B10EB9012070BD0020206332462946B8
:1003F000204601F0FBFAF6E70220F4E77047704769
:100400002DE9F84F04460E46174699464FF0000A6C
:1004100094F84100202850D106B117B90120BDE859
:10042000F88F00206064212084F84100FEF72AF94B
:100430008246A784E784A068B0F5805F04D1206974
:1004400010B90025B04602E035464FF000081EE026
:100450005346002280212046CDF8009001F062FB37
:1004600020B1202084F841000320D8E745B9B8F82E
:100470000000C0F308002168486008F1020803E0AA
:100480002878216848606D1CE08C401EE084E08C78
:100490000028DDD15346002240212046CDF80090AF
:1004A00001F040FB20B1202084F841000320B6E792
:1004B000202084F841000020B1E70220AFE70000CF
:1004C000F7B50446154694F8410020283ED101981E
:1004D00000B10DB90120FEBD01982062A584E5841C
:1004E00000206064212084F841001948A16BC86392
:1004F0001848A16B08641848A16BC8640020A16B60
:10050000086501AE23681A1D31682B46A06BFDF704
:1005100087FE30B110206064202084F84100012063
:10052000D9E76FF040002168086000BF00BF216874
:10053000143151E8001F41F080002168143141E876
:100540000002002AF3D100BF0020C4E70220C2E766
:10055000AB1501080316010883140108034A01685A
:10056000914202D10021024A1170704700100140EF
:10057000D0000020704700002DE9F04705460F46E7
:100580000F2F02DA0020BDE8F087287810B96878CC
:10059000422801D00020F6E74FF00208102F04DBBC
:1005A000A8780D2801D14FF0030805EB080908F1E0
:1005B0000C002E5C2E4801F0FBFA0C222C49484618
:1005C000FCF7F9FE08B10120DDE72A480078B042C7
:1005D00023D1294C04F8016B422004F8010B0220BE
:1005E00004F8010B4F2004F8010B4B2004F8010B19
:1005F0002148201A81B2204800F046FB824604F8C8
:1006000001AB4FEA2A2004F8010B1B48201A81B2E3
:10061000194802F027FC0120B5E73046FDF7F0FB52
:1006200020BB14480670154C04F8016B422004F8F6
:10063000010B022004F8010B4F2004F8010B4B20A2
:1006400004F8010B0D48201A81B20C4800F01CFB85
:10065000824604F801AB4FEA2A2004F8010B074850
:10066000201A81B2054802F0FDFB00BF01208AE795
:1006700092EA012006000020DF000020E6000020B2
:100680002DE9F74F82B00E469046B8F1060F02DA18
:1006900005B0BDE8F08F304602F068FA0746301D1D
:1006A00002F05EFA054606F1060AA8F1060081B2DC
:1006B000019101998D4200D0EAE707F0030131B9B9
:1006C000E91705EB91718910A5EB810101B1DFE715
:1006D0002948384400907819B0F5802F00D9D7E721
:1006E000FDF7A4FEFDF7CAFA4FF00009002410E060
:1006F0000AEB0400D0F800B0009801195A46002314
:100700000220FDF74BFE8146B9F1000F00D002E058
:10071000241DAC42ECD300BFFDF736FEB9F1000F4B
:1007200028D116480068284414490860144C0298DF
:1007300004F8010B512004F8010B022004F8010B0E
:100740004F2004F8010B4B2004F8010B0C48201A31
:1007500081B20B4800F098FA834604F801BB4FEAD7
:100760002B2004F8010B0648201A81B2044802F03D
:1007700079FB00BF00BF8BE700000408D400002015
:10078000020100202DE9F04107468846404602F06C
:10079000EDF905461DB119480068A84201D0BDE831
:1007A000F081174C04F8017B522004F8010B022061
:1007B00004F8010B4F2004F8010B4B2004F8010B47
:1007C0000F48201A81B20E4800F05EFA064604F87F
:1007D000016B301204F8010B642307220849094811
:1007E000FFF70EFE29464FF05A30FDF7D7FA3220B8
:1007F000FDF760FDFEF77EF800BFD0E7D4000020D3
:10080000090100202CCA00202DE9F04186B00546E0
:100810000E46304602F0AAF9074617B1B7F5802F09
:1008200002D906B0BDE8F08100201F490860FDF73D
:10083000FDFDFDF723FA142101A8FCF7B1FD00200E
:1008400000900190062003900220049005906946D4
:1008500001A8FDF743FD10BB144C04F8015B5020C8
:1008600004F8010B022004F8010B4F2004F8010BDF
:100870004B2004F8010B0D48201A81B20B4800F000
:1008800003FA804604F8018B4FEA282004F8010B94
:100890000648201A81B2054802F0E4FA00BFFDF7CD
:1008A00073FD00BFBDE70000D4000020FB00002066
:1008B00000BFFEE710B5012210210248FDF7DCFE63
:1008C00010BD00000000024001460F20B1F5486F46
:1008D0001BD00BDCC82920D0B1F5C87F1BD0B1F5E7
:1008E000487F16D0B1F5C86F19D110E0B1F5C85FD7
:1008F00009D0B1F5485F04D0B1F5C84F0FD10F2032
:100900000FE00E200DE00D200BE00C2009E00B2085
:1009100007E00A2005E0092003E0082001E00F209D
:1009200000BF00BF7047000010B50920FDF766FF4B
:1009300000211B2000F09CF83220FDF7BBFC802139
:100940001C2000F095F83220FDF7B4FC00211B209C
:1009500000F08EF83220FDF7ADFC80215F2000F022
:1009600087F83220FDF7A6FC00215F2000F080F818
:100970000F21212000F07CF83821222000F078F8A7
:100980002021252000F074F840215E2000F070F84E
:10099000E0215F2000F06CF8D8211B2000F068F8FF
:1009A0000820034908600920FDF73EFF012010BD23
:1009B000143C01401CB5044644F080000190002224
:1009C00010210B48FDF758FE0A23012201A909480E
:1009D000FEF769FE0A23012269460648FEF7F2FC8B
:1009E000012210210248FDF747FE9DF800001CBDC2
:1009F0000000024014C9002038B50446002210212E
:100A00000948FDF739FEE32000900A2301226946D8
:100A10000648FEF748FE4FF4C07221460348FEF731
:100A200093FD054638BD00000000024014C90020B7
:100A300070B505462846FFF747FF06461B20FFF71F
:100A4000B9FF044604F0800020B104F07F011B20B0
:100A500000F00EF83146212000F00AF804F0800082
:100A600018B121461B2000F003F8012070BD0000E2
:100A700038B505460C468DF800508DF8014000222F
:100A800010210748FDF7F8FD0A23022269460548B0
:100A9000FEF709FE012210210148FDF7EDFD38BDEA
:100AA0000000024014C9002008B500BF00200090DB
:100AB0001648006840F48000144908600846006841
:100AC00000F48000009000BF00BF00220621382003
:100AD000FDF7BEFE3820FDF7A7FE002206213A20D2
:100AE000FDF7B6FE3A20FDF79FFE002206213B20CF
:100AF000FDF7AEFE3B20FDF797FE002206214620C3
:100B0000FDF7A6FE4620FDF78FFE08BD30380240F7
:100B100010B5044A0021044801F0C6F903490860F1
:100B200010BD00005C490108351201081C000020BE
:100B300000B587B0142102A8FCF732FC00BF0020EA
:100B400001902E48006840F004002C4908600846D7
:100B5000006800F00400019000BF00BF00BF00204B
:100B600001900846006840F0800008600846006870
:100B700000F08000019000BF00BF00BF0020019086
:100B80000846006840F0010008600846006800F070
:100B90000100019000BF00BF002202211848FDF7AC
:100BA0006BFD012210211648FDF766FD1220029010
:100BB0000120039000200490059002A91048FDF741
:100BC00077FC0C2002904FF48810039000200490D2
:100BD00002A90B48FDF76CFC002206210820FDF756
:100BE00037FE0820FDF720FE002206210920FDF730
:100BF0002FFE0920FDF718FE07B000BD3038024077
:100C00000000024010B50E480E4908604FF4827093
:100C1000486000210B488160C160016141614FF46F
:100C2000007181611821C16100210162416281620C
:100C30000A21C162FEF7D4FA08B1FCF7BCFE10BD70
:100C40000030014014C9002010B50C480C49086060
:100C50004FF4165048600021094881604FF400515C
:100C6000C160002101610C21416100218161C161EC
:100C7000FFF7E0FA08B1FCF79EFE10BD001001403E
:100C80002CCA002000BFFEE730B502464FF6FF70C9
:100C90004AF2010411E012F8013B584000230AE037
:100CA00000F0010525B14AF2010585EA600000E087
:100CB00040105D1CEBB2082BF2DB0B1EA1F101050D
:100CC000A9B2E8D130BD00BFFEE7000038B5044648
:100CD0000D492068884215D10C4800680068C0F3AF
:100CE000001078B100BF002000900848006800683C
:100CF0000090064800684068009000BF00BF0348AD
:100D000000F084FF38BD0000001001402CCA002014
:100D100010B50446002011E000EB400134F9111039
:100D200000EE101AB8EEC00ADFED2D0A20EE200A00
:100D30002C4901EB800181ED000A401CB0F5805F79
:100D4000EADB294A4FF480512648FCF739FC0020A1
:100D500012E000EB4001491C34F9111000EE101AAA
:100D6000B8EEC00ADFED1E0A20EE200A1D4901EB95
:100D7000800181ED000A401CB0F5805FE9DB1B4A71
:100D80004FF480511748FCF71BFC002019E000EBE2
:100D90004001891C34F9111000EE901AF8EEE00AB7
:100DA0009FED0F1A60EE810AB0EE600A0D4901EB6B
:100DB000800181ED000A0E4901EB800181ED000AFE
:100DC000401CB0F5805FE2DB0A4A4FF480510548D1
:100DD000FCF7F6FB4FF480510248FCF76BFB10BDAB
:100DE0000000003B68280120686801208C68012011
:100DF000D4680120B06801202DE9F84F04460F4661
:100E00009046072F01DABDE8F88F2578667894F8C8
:100E1000029094F803B00DB9012000E00020824652
:100E2000BAF1000F05D0412E03D1404601F0AAFED1
:100E3000E9E7BAF1000F06D0422E04D13946204628
:100E4000FFF79AFBDFE7BAF1000F02D1454500D06A
:100E5000D9E7502E32D006DC022E0BD0032E16D04E
:100E6000042E3CD10DE0512E2DD0522E32D0872EA3
:100E700035D116E01C4B1D4A1D49284601F0B4FE31
:100E80002EE0FCF787FC284601F06AFF28E0FCF71B
:100E9000E9FA5B464A4601460090284601F086FF83
:100EA0001EE0B9F1010F06D12046FCF755FC28469B
:100EB000FCF718FC00E000BF00BF11E0A11C2846B1
:100EC000FFF7A2FC0CE0381F82B2A11C2846FFF7F6
:100ED000D7FB05E0A11C2846FFF754FC00E000BF4B
:100EE00000BF00BF8FE70000B06801208C680120C0
:100EF0006868012010B50248FEF7C4F810BD000074
:100F000014C9002070B50546AC6B0020E087E08670
:100F10002046FEF7B5F870BD70B50546AC6B20688D
:100F2000406820F0030021684860606D40F01000C8
:100F30006065012084F851002046FEF7A1F870BDDD
:100F400070B50446A56B2846FEF7ACFB70BD70B5C6
:100F50000446A56B2846FEF75CFE70BD70B50546DD
:100F6000AC6BFDF78FFB06462868006800F48070C4
:100F7000B0F5807F2BD02068406820F020002168E9
:100F80004860A06850B96068B0F5827F06D12068DB
:100F9000406820F003002168486005E02068406850
:100FA00020F001002168486032466421204600F0AC
:100FB00047F808B1202060650020E087012084F810
:100FC0005100606D18B12046FEF75AF870BD2046FA
:100FD000FEF746FB00BFF9E770B50546AC6BFDF7C1
:100FE00051FB06462868006800F48070B0F5807FE9
:100FF00021D02068406820F02000216848603246F7
:101000006421204600F066F818B1606D40F02000C1
:1010100060652068406820F0030021684860002077
:10102000E086E087012084F85100606D18B1204609
:10103000FEF726F870BD2046FEF7EAFD00BFF9E78F
:10104000F8B504460E4615466068B0F5827F0DD1AE
:10105000A068B0F5004F03D0A068B0F5806F05D14F
:101060002068006820F04000216808606068B0F5E2
:10107000827F1FD1A068B0F5806F0DD0334600226B
:1010800080212046009500F069F808B3606D40F0BB
:10109000200060650320F8BD334600220121204670
:1010A000009500F05BF898B1606D40F0200060653D
:1010B0000320F0E73346002201212046009500F08E
:1010C0004DF828B1606D40F0200060650320E2E734
:1010D0000020E0E77CB504460E4615463346012263
:1010E00002212046009500F039F828B1606D40F0EB
:1010F0002000606503207CBD164800681821B0FB05
:10110000F1F01549B0FBF1F04FF47A7148430190CA
:101110006068B0F5827F0DD13346002280212046E1
:10112000009500F01BF898B1606D40F020006065FC
:101130000320E0E700BF019800B908E00198401ED5
:10114000019020688068C0F3C0100028F3D100BF70
:101150000020D0E74C00002040420F002DE9F84F5E
:1011600004460D4690461E46DDF82890FDF78AFAA3
:10117000A0EB0900371AFDF785FA82462C48006873
:10118000C0F3CB307843009046E0701C002843D079
:10119000FDF778FAA0EB0A00B84200D2A7BB20689E
:1011A000406820F0E000216848606068B0F5827F08
:1011B0000DD1A068B0F5004F03D0A068B0F5806FE6
:1011C00005D12068006820F0400021680860A06A0E
:1011D000B0F5005F0DD100BF2068006820F400501A
:1011E000216808602068006840F4005021680860A9
:1011F00000BF012084F8510000BF002084F8500097
:1012000000BF0320BDE8F88FFFE7009808B900276A
:1012100002E00098401E0090206880682840A842A4
:1012200001D1012000E000204045AED10020E9E7D7
:101230004C0000201CB51748282100234FF40072F1
:10124000CDE9001014A1174802F0BCFF1648202178
:1012500000238A01CDE9001014A1174802F0B2FF63
:101260001648182100234FF40072CDE9001014A194
:10127000164802F0A7FF03220021012002F020FB04
:1012800013490860002001F0F5FF00BF012000F0C5
:10129000B5FDFBE70C000020446174615461736B81
:1012A0000000000001D9000810000020416C676FA9
:1012B0005461736B0000000035D400081400002056
:1012C000436F6D6D5461736B0000000031D70008EF
:1012D0001800002010B54FF0E020006903F096F8E8
:1012E000012801D002F0D2FA10BD000000B593B081
:1012F000302107A8FCF754F8142102A8FCF750F895
:1013000000BF002001902448006840F0805022492E
:1013100008600846006800F08050019000BF00BFE0
:1013200000BF002001901D48006840F440401B4968
:1013300008600846006800F44040019000BF00BF0C
:101340000220079001200A9010200B9002200D909F
:1013500000210E9108210F91642110910221119119
:101360000421129107A8FDF73DFC08B1FCF723FB0F
:101370000F20029002200390002004904FF4805030
:10138000059000200690032102A8FDF7C9FA08B1D4
:10139000FCF711FB13B000BD403802400070004064
:1013A0000348006840F4700001490860704700007D
:1013B00088ED00E010B50248FEF7ABFC10BD000060
:1013C00034CB002010B50268224B98420BD0B0F10C
:1013D000804F08D0204B984205D0204B984202D035
:1013E0001F4B984203D122F070024B681A43194BED
:1013F000984214D0B0F1804F11D0174B98420ED0C4
:10140000164B98420BD0164B984208D0154B984279
:1014100005D0154B984202D0144B984203D122F4C8
:101420004072CB681A4322F080034C6943EA0402FD
:101430008B68C3620B688362064B984201D10B69CB
:101440000363036843F00403036001234361026004
:1014500010BD0000000001400004004000080040F2
:10146000000C0040004001400044014000480140A1
:1014700070B50446A56B0020E8852846FEF755FDAB
:1014800070BD70B506460025B46B20684069C0F396
:10149000C01594F84100212805D125B10020E08431
:1014A000204600F0FBF820684069C0F3801594F8EE
:1014B0004200222805D125B10020E085204600F019
:1014C000A7F8606C40F0100060642046FEF72DFD28
:1014D00070BD70B50546AC6B2868006800F480707C
:1014E000002842D1E08500BF00BF21680C3151E8DF
:1014F000001F21F4807021680C3141E80002002AAD
:10150000F3D100BF00BF00BF2168143151E8001FB4
:1015100021F001002168143141E80002002AF3D1D2
:1015200000BF00BF00BF2168143151E8001F21F047
:1015300040002168143141E80002002AF3D100BFC5
:10154000202084F84200206B01280ED100BF00BF8C
:1015500021680C3151E8001F21F0100021680C3186
:1015600041E80002002AF3D100BF00206063206B35
:10157000012804D1A18D2046FEF791FC02E020460F
:10158000FEF73CFF70BD70B50546AC6B0120606393
:10159000206B012805D1A08D41082046FEF77FFC75
:1015A00002E02046FEF72BFF70BD70B50546AC6B20
:1015B0002868006800F48070F8B90020E08400BF5B
:1015C00000BF2168143151E8001F21F0800021681C
:1015D000143141E80002002AF3D100BF00BF00BF70
:1015E00021680C3151E8001F41F0400021680C31A6
:1015F00041E80002002AF3D102E02046FEF7AEFFE8
:1016000070BD70B50446A56B2846FEF7B3FF70BDEC
:1016100000BF00BF02680C3252E8002F22F4907124
:1016200002680C3242E80013002BF3D100BF00BF68
:1016300000BF0268143252E8002F22F00101026854
:10164000143242E80013002BF3D100BF016B0129D3
:101650000ED100BF00BF02680C3252E8002F22F00A
:10166000100102680C3242E80013002BF3D100BFD6
:10167000202180F8421000210163704710B5044614
:101680002068C06820F040002168C860202084F8ED
:1016900041002046FEF762FF002010BD00BF00BFE2
:1016A00002680C3252E8002F22F0C00102680C32AE
:1016B00042E80013002BF3D100BF202180F8411035
:1016C0007047F8B504460025002694F84200222809
:1016D00073D1A068B0F5805F0BD1206948B9A66AC4
:1016E00020684068C0F308003080A06A801CA062B7
:1016F00014E0A56AA068B0F5805F03D0A06828B99F
:10170000206918B920684068287004E020684068A3
:1017100000F07F002870A06A401CA062E08D401E8F
:1017200080B2E085002846D12068C06820F0200003
:101730002168C8602068C06820F480702168C86093
:101740002068406920F0010021684861202084F869
:10175000420000206063206B012826D10020206316
:1017600000BF00BF21680C3151E8001F21F01000BC
:1017700021680C3141E80002002AF3D100BF206843
:10178000006800F0100010280AD100BF002000906F
:1017900020680068009020684068009000BF00BF8B
:1017A000A18D2046FEF77BFB02E02046FEF726FED9
:1017B0000020F8BD01E00020FBE70220F9E700006F
:1017C0002DE9F84F04462068006920F44050E16894
:1017D0000843216808612169A068084361690843DA
:1017E000E169084300902068C06849F20C618843B1
:1017F000009908432168C8602068406920F440705F
:10180000A16908432168486176492068884203D06D
:1018100075492068884203D1FDF77CF9814602E0D2
:10182000FDF768F98146E069B0F5004F6CD1022000
:101830006168A0FB015003461920A9FB0070014616
:101840002A463846FBF762FD6421B0FBF1F04FEA0F
:10185000001A02206168A0FB01510B461920A9FB68
:1018600000712A463846FBF751FD83460220616825
:10187000A0FB015003461920A9FB00712A463846F7
:10188000FBF744FD6421B0FBF1F000EBC00101EB7C
:101890000010ABEB8000322101EBC0006421B0FBF3
:1018A000F1F000F0F8000AEB400A02206168A0FBAA
:1018B000015003461920A9FB007001462A4638460C
:1018C000FBF724FD834602206168A0FB015003461C
:1018D0001920A9FB00712A463846FBF717FD642141
:1018E000B0FBF1F000EBC00101EB0010ABEB8000AE
:1018F000322101EBC0006421B0FBF1F000F00700E1
:101900005044216888606AE004206168A0FB0150AF
:1019100003461920A9FB007001462A463846FBF70A
:10192000F5FC824604206168A0FB015003461920A3
:10193000A9FB007001462A463846FBF7E7FC642104
:10194000B0FBF1F000EBC00101EB0010AAEB80004E
:10195000322101EB00106421B0FBF1F000F0F00A3D
:1019600004206168A0FB017003461920A9FB005107
:101970003A462846FBF7CAFC6421B0FBF1F00AEBBB
:10198000001A04206168A0FB01510B461920A9FB35
:1019900000712A463846FBF7B9FC8346042061688B
:1019A000A0FB015003461920A9FB007001462A46FE
:1019B0003846FBF7ABFC6421B0FBF1F000EBC00153
:1019C00001EB0010ABEB8000322101EB0010642131
:1019D000B0FBF1F000F00F00504421688860BDE8D2
:1019E000F88F0000001001400014014077B581B06D
:1019F000044615460298A062A58500206064222056
:101A000084F842002C48E16BC8632C48E16B086401
:101A10002B48E16BC8640020E16B086502AE3268B8
:101A20002368191D2B46E06BFCF7FAFB38B1102038
:101A30006064202084F84200012004B070BD00BF23
:101A400000200090206800680090206840680090A6
:101A500000BF00BF206970B100BF00BF21680C311A
:101A600051E8001F41F4807021680C3141E8000208
:101A7000002AF3D100BF00BF00BF2168143151E834
:101A8000001F41F001002168143141E80002002AE2
:101A9000F3D100BF00BF00BF2168143151E8001F1F
:101AA00041F040002168143141E80002002AF3D1DE
:101AB00000BF0020C1E70000D3140108871501080A
:101AC00083140108014691F84100212828D1886833
